:020000040800F2
:1000000000070020650100081914000815130008F6
:1000100000000000000000000000000000000000E0
:10002000000000000000000000000000751600083D
:1000300000000000000000001B14000877160008F4
:100040009501000895010008950100089501000838
:100050009501000895010008950100089501000828
:100060009501000895010008950100089501000818
:100070009501000895010008950100089501000808
:100080009501000800000000000000009501000834
:100090000000000095010008950100089501000886
:1000A0000000000095010008950100089501000876
:1000B0009501000800000000950100089501000866
:1000C00000F002F800F03EF80CA030C80838241800
:1000D0002D18A246671EAB4654465D46AC4201D180
:1000E00000F030F87E460F3E0FCCB6460126334274
:1000F00000D0FB1AA246AB4633431847D016000087
:10010000F0160000103A02D378C878C1FAD8520726
:1001100001D330C830C101D504680C6070470000BD
:100120000023002400250026103A01D378C1FBD813
:10013000520700D330C100D50B6070471FB51FBDFB
:1001400010B510BD00F099F91146FFF7F7FF01F067
:10015000F9FA00F0B1F903B4FFF7F2FF03BC00F0C5
:10016000B9F900000F4880F308880F480168090EAC
:100170000E4A914205D10E480E4901600E480F49C2
:1001800001600F4880470F480047FEE7FEE7FEE7A3
:10019000FEE7FEE7FEE700000B480C490C4A0D4B5A
:1001A0007047000000070020040000001F0000004E
:1001B0001810024001000000000001400000000093
:1001C000CD160008C1000008000100200007002033
:1001D0000003002000030020FEB5054610460C4633
:1001E000184373D0AE468C460020AD1A01469C41A0
:1001F00067D36646002701243D46B61A9D4102D3C7
:1002000013463A462124654676462F04360C3E4373
:100210002D0CB61A9D4104D3150C1B042B4312045C
:100220001034654676462F06360A3E432D0AB61A26
:100230009D4104D3150E1B022B4312020834654660
:1002400076462F0736093E432D09B61A9D4104D341
:10025000150F1B012B431201241D65467646AF077F
:10026000B6083E43AD08B61A9D4104D3950F9B00D6
:100270002B439200A41C65467646EF0776083E4362
:100280006D08B61A9D411AD392185B41641C16E0A2
:100290000018764665464941B71A9D410191009084
:1002A00009D36046B11A98418E4684460098019958
:1002B0000025401C6941DD0752082A435B08641E83
:1002C000E6D57246634603B0F0BDFFE70020014665
:1002D000C046C0462A462346F5E701E004C0091F90
:1002E0000429FBD28B0701D50280801CC90700D0EE
:1002F0000270704700290BD0C30702D00270401C67
:10030000491E022904D3830702D50280801C891E5E
:10031000E3E70022EEE70022DFE7002203098B4239
:100320002CD3030A8B4211D300239C464EE0034694
:100330000B433CD4002243088B4231D303098B4248
:100340001CD3030A8B4201D394463FE0C3098B427E
:1003500001D3CB01C01A524183098B4201D38B01D7
:10036000C01A524143098B4201D34B01C01A52417A
:1003700003098B4201D30B01C01A5241C3088B42BF
:1003800001D3CB00C01A524183088B4201D38B00AA
:10039000C01A524143088B4201D34B00C01A52414C
:1003A000411A00D201465241104670475DE0CA0F23
:1003B00000D04942031000D34042534000229C46E3
:1003C00003098B422DD3030A8B4212D3FC228901ED
:1003D00012BA030A8B420CD3890192118B4208D3C3
:1003E000890192118B4204D389013AD0921100E025
:1003F0008909C3098B4201D3CB01C01A5241830939
:100400008B4201D38B01C01A524143098B4201D365
:100410004B01C01A524103098B4201D30B01C01A90
:100420005241C3088B4201D3CB00C01A524183080A
:100430008B4201D38B00C01A5241D9D243088B4260
:1004400001D34B00C01A5241411A00D20146634603
:1004500052415B10104601D34042002B00D5494267
:10046000704763465B1000D3404201B50020C04690
:10047000C04602BD704770477047754600F024F8CB
:10048000AE46050069465346C008C000854618B010
:1004900020B5FFF781FE60BC00274908B64600265C
:1004A000C0C5C0C5C0C5C0C5C0C5C0C5C0C5C0C524
:1004B000403D49008D46704710B50446C046C046D1
:1004C0002046FFF748FE10BD004870479C00002002
:1004D0007047000001491820ABBEFEE7260002006D
:1004E00072B6FEE7F8B5040005D025462035287819
:1004F000002802D004E00120F8BD204600F07AF880
:100500002068016801221143016000F077F901279A
:1005100006467F0404E000F071F9801B0A2811D818
:1005200020684068C007F6D0206801680222914325
:10053000016000F063F906460AE000F05FF9801BF5
:100540000A2805D9606A3843606205202870D2E71E
:10055000206840688007F0D4217E8020012921682E
:100560000A683BD082430A60617E402001292168ED
:100570000A6835D082430A60A17E202001292168C3
:100580000A682FD082430A60E07E1021012820688B
:10059000026829D00A430260207F082101282068D0
:1005A000026823D08A430260617F04200129216808
:1005B0000A681DD082430A60E168A0686269084346
:1005C0002169114308436168491E08432168C861D5
:1005D00000206062012028700020F8BD0243C2E7BD
:1005E0000243C8E70243CEE78A43D4E70A43DAE787
:1005F0000243E0E710B586B0044614216846FFF7D1
:100600008AFE1349206888421FD11248C26901211D
:1006100049060A43C261C2690A4005924269091249
:100620000A4342614069084005900320C0020090DF
:1006300002200190002002900320039004200490E7
:1006400009206946C00600F007F806B010BD00009A
:100650000064004000100240F8B500230324012587
:10066000B5E02E469E40B44632407CD00E79B607A7
:10067000B60F012E01D0022E17D186682746B64646
:100680005E00B74000967646BE43B646CF68009EF1
:10069000B74076463743876046686746BE430F7962
:1006A000FF06FF0F9F40374347600E79F643B607BA
:1006B0000ED0C6682746B4465E00B646B7406646CA
:1006C000BE43B4468F687646B74066463743C76038
:1006D0000E79B607B60F022E14D1DE08B600361812
:1006E0000096366A5F07B446FE0E0F27B646B7403F
:1006F0006646BE43B4460F697646B7406646374302
:10070000009E376206682746B4465E00B646B7408C
:100710006646BE430F79B446BF07BF0F7646B74063
:100720006646374307604E68B603B60F4ED02B4F70
:10073000BE692E43BE61BE699F08F607F60F284EBC
:10074000BF00BE190096B6680F27B4469E07360F45
:10075000B646B7406646BE430927FF06B446B842D0
:1007600002D100270BE031E01E4FB84201D1012732
:1007700005E01D4FB84201D1022700E0052776466B
:10078000B74066463743009EB760184EB6684F685C
:100790009643FF0200D51643144FBE60FE684F68B3
:1007A0009643BF0200D51643104FFE607E684F6827
:1007B0009643BF0300D516430C4F7E603E684F68DA
:1007C0009643FF0300D51643084A16605B1C0A686F
:1007D0001646DE4000D044E7F8BD0000001002409D
:1007E00000000140000400480008004800040140E7
:1007F000002A01D08161704781627047014880689A
:1008000070470000000000200248816802788918C3
:10081000816070470000002010B506480168102272
:1008200011430160032000F007F800F027F80020D2
:1008300010BD00000020024070B504460D4D7D2023
:100840002978C000FFF769FD01460B480068FFF7F3
:1008500064FD00F047FD002809D1042C07D20022D6
:100860002146401E00F024F800206C6070BD01207D
:1008700070BD0000000000200C00002008B50A48F0
:100880008169012211438161816911400091C2692E
:1008900001040A43C261C06908400090034801682E
:1008A00010221143016008BD001002400000014009
:1008B00010B500F025FF10BDF8B50F4606005ED05C
:1008C0003C4D2868C007C00FB84209D228684008CC
:1008D0004000384328602868C007C00FB8424ED196
:1008E0003068354C81070CD5400704D56068072176
:1008F0000902084360606068F0218843B1680843DA
:1009000060603078C0072BD07068012810D00228B2
:1009100010D0032811D02168890700292FDA6168D7
:100920008908890001436160FFF768FF009010E0CB
:10093000216803E021688901EFE7616B8903ECE737
:10094000FFF75CFF0099411A1C48814201D903203E
:10095000F8BD60680C210840716889008842EFD1B9
:100960002868C007C00FB8420BD92868400840006B
:10097000384328602868C007C00FB84201D0012062
:10098000F8BD3078400706D5606807210902884322
:10099000F1680843606000F017F86168084A0906CA
:1009A000090F515CC840074908600320FFF744FF66
:1009B0000020F8BD00200240001002408813000013
:1009C000BC1700080C00002070B5184A51680C20B4
:1009D0000B4603401648042B06D0164D4600082B44
:1009E00003D00C2B1FD0304670BD8B02124C1B0F56
:1009F000E45CD26A104B1207120F1033C9039A5CE1
:100A0000890F02290AD003290AD000233046002189
:100A1000FFF7E2FB214600F05AFE70BD0023F6E727
:100A200000232846F3E7284670BD0000001002406E
:100A300000093D00006CDC029C170008FEB50400B4
:100A400070D02078F94EFA4DC00748D0686800078A
:100A5000800F01281FD068680007800F022804D18A
:100A60006868C003800F022815D06168012919D079
:100A700001208004002901D0052917D02968B1433D
:100A80002960296881432960606800281BD0FFF72E
:100A9000B5FE074613E02868800320D5606800286B
:100AA000CED01CE0286830432860EDE72968014378
:100AB0002960F7E7FFF7A2FEC01B642870D82868FA
:100AC0008003F7D50BE0FFF799FE074604E0FFF738
:100AD00095FEC01B6428F1D828688003F7D42078DD
:100AE00080073FD568680007800F14D0686800074A
:100AF000800F022804D16868C003800F01280AD043
:100B0000E068002828681ED0012108432860FFF70C
:100B100075FE07460CE0286880070CD5E0680128C0
:100B200000D108E080E1FFF769FEC01B0228C5D8AC
:100B300028688007F7D52868F82188432169C9000B
:100B4000084328600EE0400840002860FFF756FE8A
:100B5000074604E0FFF752FEC01B0228AED8286803
:100B60008007F7D42078000723D5E0690028686A59
:100B70000FD0012108436862FFF740FE074604E0FA
:100B8000FFF73CFEC01B022898D8686A8007F7D59B
:100B90000FE0400840006862FFF730FE074605E0BE
:100BA000C3E0FFF72BFEC01B022887D8686A8007C6
:100BB000F7D4207804274007002861DA002001904C
:100BC000E869C00008D4E969B8060143E961E96948
:100BD000014001200091019096480168C90511D497
:100BE0000168821511430160FFF708FE009005E0DF
:100BF000FFF704FE0099401A642898D88D480068D1
:100C0000C005F5D5A06801280AD0002801D0052824
:100C100011D0286A400840002862286AB84302E0E0
:100C2000286A012108432862A068002812D0FFF733
:100C3000E5FD00900AE0286A38432862F0E7FFF7F4
:100C4000DDFD0099411A7C4881426ED8286A8007F0
:100C5000F5D50DE0FFF7D2FD009006E0FFF7CEFDE1
:100C60000099411A744881425FD8286A8007F5D4F8
:100C70000198002804D0E969012000078143E96157
:100C80002078C00635D5606901280CD0401D686BFE
:100C900024D038436863686B400840006863FFF7FE
:100CA000ADFD074622E0686B38436863686B01213D
:100CB00008436863FFF7A2FD074604E0FFF79EFDC7
:100CC000C01B022831D8686B8007F7D5686BF82104
:100CD0008843A169C900084368630AE0B8436863B0
:100CE000F4E7FFF78BFDC01B02281ED8686B800756
:100CF000F7D42078800637D568680007800F03286E
:100D000014D068680007800F022804D16868C00307
:100D1000800F03280AD0206A0028686B16D0304361
:100D20006863FFF76BFD06460CE062E0686B8003CA
:100D30001AD5206A012877D116E0FFF75FFD801BE6
:100D4000022856D8686B8003F7D50DE0B04368637E
:100D5000FFF754FD064604E0FFF750FD801B022814
:100D600047D8686B8003F7D4606A002866D069684A
:100D70000907890F022942D0012636060228286871
:100D800005D0B0432860FFF739FD044633E0B04397
:100D90002860FFF733FD074604E0FFF72FFDC01B77
:100DA000022826D828688001F7D4E86A216B000958
:100DB00000010843E862A16AE06A084369687B228F
:100DC000D203914308436860286830432860FFF7E6
:100DD00015FD044604E0FFF711FD001B022808D8AA
:100DE00028688001F7D529E0FFF708FD001B0228DD
:100DF00001D90320FEBD28688001F5D41EE001283A
:100E0000F8D06868E96A0322D203A36A02409A42D2
:100E10000AD10907226B090F914205D10F218904DC
:100E20000840E16A884209D00120FEBD00000100AF
:100E30000010024000700040881300000020F4E71A
:100E4000F8B504000CD0606A002500280AD025619E
:100E5000656126464036A562707F002808D00BE009
:100E60000120F8BD6168C81FFD38F2D0E561F0E7E8
:100E70003577204600F05CF802227277206801681E
:100E80004023994301600723E1681B02994201D97D
:100E9000002001E0012000030F273F02B94202D0E9
:100EA000994200D0A562FF236168053319402127CC
:100EB000A368BF023B40194323691340227D1943B5
:100EC000D207D20F11430123A2695B021A401143DA
:100ED000E26938231A401143226A80231A401143E1
:100EE000A26A9B011A40114322681160A169042281
:100EF000090C1140626A10231A401143626B0823E7
:100F00001A4011430F23E2681B021A4011430122C9
:100F1000120310400143206841602068C1695210EB
:100F20009143C1612566012070770020F8BD000063
:100F300010B586B0044614216846FFF7ECF9114954
:100F4000206888421CD11048826981140A4382615A
:100F500082690A400592426949010A434261406937
:100F600008400590F020009002200190002103200D
:100F700003900291049109206946C006FFF76CFBBB
:100F800006B010BD0030014000100240FFB505461C
:100F900004464035287F002781B01646012809D035
:100FA00001202877FFF72AFC0090687F012804D0F1
:100FB000022797E0022005B0F0BD0298002874D007
:100FC000002E72D003206877002020660299A1636A
:100FD000A687E6872064A880E8802065E064012277
:100FE000A068D2034021904208D1206802688A4359
:100FF0000260206802680B021A43026020680268DF
:10100000520602D402680A4302600721E06809021E
:101010008842606828D9002801D0012E1ED1A06B1B
:1010200021680088C86006E020688168890709D5C2
:10103000A16B0988C160A06B801CA063E08F401E7B
:10104000E0870BE0FFF7DAFB0099411A0498814230
:1010500002D3401C02D005E0002803D0E08F002816
:10106000E2D128E003273BE0002801D0012E1FD168
:10107000A06B21680078087306E020688168890702
:1010800009D5A16B09780173A06B401CA063E08FA8
:10109000401EE0870CE0FFF7B1FB0099411A04986D
:1010A000814203D3401C03D0DCE717E00028D9D0ED
:1010B000E08F0028E1D12046009A049900F0AEF9B3
:1010C000002801D020202066A068002803D12068D5
:1010D000C16880680090206E002801D0012701E0DF
:1010E0000120687700202877384664E7FFB504467A
:1010F00083B00120254640350090287F00271E46FA
:1011000001280FD001202877FFF778FB0190687F36
:10111000616801280DD0CA1FFD3A08D1A1680029D5
:1011200005D102E0022007B0F0BD042801D002275B
:10113000D4E0049800286FD005980028FBD0002E3A
:10114000F9D0687F042801D0052068770020206648
:1011500005992164EE80AE800499A163E687A68795
:10116000E064206507210120E268090200038A4249
:101170002268536801D9834300E003435360206829
:101180000268520603D4026840231A430260E068F2
:101190008842606848D9002801D0012E3DD1A06B5B
:1011A00001882068C160A06B801CA063E08F401E96
:1011B000E08732E020688168890710D5E18F002937
:1011C0000DD0009901290AD1A16B0988C160A06BDB
:1011D000801CA063E08F401EE08700200090206804
:1011E0008168C9070DD0E98800290AD0C068216C40
:1011F0000880206C801C2064E888401EE880012064
:101200000090FFF7FBFA0199401A0C99884204D329
:10121000481C02D003275FE05CE0E08F0028C9D1C2
:10122000E8880028C6D148E0002801D0012E3ED130
:10123000A06B216800780873A06B401CA063E08F4E
:10124000401EE08733E020688168890710D5E18F70
:1012500000290DD0009901290AD1A16B09780173E9
:10126000A06B401CA063E08F401EE0870020009030
:1012700020688168C9070DD0E98800290AD0007B61
:10128000216C0870206C401C2064E888401EE880B7
:1012900001200090FFF7B2FA01460198091A0C9854
:1012A000814202D3401C02D0B4E70028B2D0E08FC4
:1012B0000028C8D1E8880028C5D12046019A0C9999
:1012C00000F0ACF8002802D0012720202066206E14
:1012D000002801D0012701E001206877002028774D
:1012E000384620E7094910B5401E884201D901203F
:1012F00010BD074C60610321081F00F001FA0020B7
:10130000A06107202061002010BD0000FFFFFF004A
:1013100000E000E0FEE7000010B50C480A4901605B
:101320001021416000218160C1600161416101764D
:1013300041768176C17601774177FFF7D3F80028AF
:1013400001D0FFF7CDF810BD006400401000002070
:1013500030B587B014216846FEF7DDFF19484269B1
:10136000012189050A43426142690A4005924269A6
:1013700049110A43426142690A40059242694900A3
:101380000A434261406909250840ED0605900022A4
:1013900008212846FFF72CFA08200090012000249D
:1013A00001900294694603942846FFF755F90220FC
:1013B00000900194694602940348FFF74DF907B085
:1013C00030BD0000001002400004004810B5114874
:1013D0000F490160FF2105314160002107221202FF
:1013E0008160C26001610122426152028261016238
:1013F00018224162C261816207220163C2624163B5
:10140000FFF71EFD002801D0FFF76AF810BD0000AD
:101410000030014038000020FEE77047F8B50F4665
:101420000B4615460092032104460022C90200F033
:101430003DF82026002812D13B460022802120467C
:10144000009500F09FF8002809D103213B460022B7
:1014500049022046009500F029F8002803D0206EAC
:10146000304320660320F8BD3EB540006946401C6D
:1014700008710020487109240246E4061021204624
:10148000FFF7B6F90020C0430090022302AA01A989
:101490000548FFF72BFE012210212046FFF7A8F98F
:1014A0006946487A3EBD000038000020FFB585B08F
:1014B0000E460446002069460E9D17460871FFF748
:1014C0009DF9411B0898451AFFF798F90390206889
:1014D00023210C3002902A4800684843000D6843DD
:1014E00046E003204002864206D1002F04D1029834
:1014F00001786846017100790898401C39D0FFF7DF
:101500007DF90399401AA84205D2002D03D0009816
:1015100000282BD02BE020684168E02291434160F5
:101520006068C11FFD390CD10121A068C903884240
:1015300002D04911884204D12068016840229143B9
:1015400001600120A16A4003814207D121680A6835
:1015500082430A6021680A6802430A60012040341D
:10156000607700202077032009B0F0BD0025401EE1
:101570000090206880683040B842B2D10020F3E784
:101580000C000020FFB581B01E4604460A9DFFF7FF
:1015900035F9401B351AFFF731F907462648006830
:1015A0004001000D684339E0701C38D0FFF726F980
:1015B000C01BA84205D2002D03D0009800282BD0D4
:1015C0002BE020684168E022914341606068C11FC0
:1015D000FD390CD10121A068C903884202D049110C
:1015E000884204D1206801684022914301600120B3
:1015F000A16A4003814207D121680A6882430A60D8
:1016000021680A6802430A600120403460770020A4
:101610002077032005B0F0BD0025401E0090206813
:1016200081680298884305D0002103988142BBD18C
:101630000020EFE70121F8E70C00002038B540005A
:101640006A46107051700924E406002210212046D9
:10165000FFF7CEF80023DB43022269460448FFF778
:1016600095FC012210212046FFF7C2F838BD00008A
:1016700038000020704710B5FFF7C6F810BD10B550
:1016800092B034216846FEF746FE00240F942020D5
:1016900000900D9401200E940890109409946846CF
:1016A000FFF7CCF9002801D072B6FEE707200D90B5
:1016B00003200E900F94012110940DA8FFF7FCF861
:1016C000002801D072B6FEE712B010BD7047F8B521
:1016D000040C8BB2264682B25E430D0C1046370CCA
:1016E0005843360480190021794116466E43370C61
:1016F00036048019794126466E438919F8BD0000E9
:101700008307FF22DB0E9A408907090E99400028C3
:1017100008DB830809489B001B181868904308439E
:10172000186070470007000F0838830804489B00C2
:101730001B18D86990430843D861704700E400E063
:1017400000ED00E008B5FFF767F8FFF798FFFFF737
:10175000FFFDFFF7E1FDFFF739FE0E4908680E4C6B
:10176000400608D40868402210430860012208217E
:101770002046FFF73DF8012208212046FFF738F800
:1017800098211420FFF75AFF1420FFF76DFE6946D9
:101790000870FEE700300140000000480203040525
:1017A000060708090A0B0C0D0E0F101001020304A6
:1017B00005060708090A0B0C0D0E0F1000000000AB
:1017C000000000000102030406070809EC170008E6
:1017D000000000201000000004010008FC170008B1
:1017E00010000020F00600002001000801000000A9
:0C17F000040000000000000000127A005D
:04000005080000C12E
:00000001FF
