:020000040800F2
:100000001004002045010008A9030008A50300080A
:10001000A70300088D010008310700080000000058
:10002000000000000000000000000000850400083F
:100030008F0100080000000051040008310500088D
:100040005F0100085F0100085F0100085F01000810
:100050005F0100085F010008910100085F010008CE
:100060005F0100085F0100085F0100085F010008F0
:100070005F0100085F0100085F0100085F010008E0
:100080005F0100085F0100085F0100085F010008D0
:100090005F0100085F0100085F0100085F010008C0
:1000A0005F0100085F0100085F0100085F010008B0
:1000B000850500085F0100085F0100085F01000876
:1000C0005F0100085F0100085F0100085F01000890
:1000D0005F0100085F0100085F0100085F01000880
:1000E0005F0100085F0100085F0100085F01000870
:1000F0005F0100085F0100085F0100085F01000860
:100100005F0100085F0100085F0100085F0100084F
:100110005F0100085F0100085F0100085F0100083F
:100120005F0100085F0100085F0100085F0100082F
:10013000DFF80CD000F018F800480047510700081D
:10014000100400200648804706480047FEE7FEE707
:10015000FEE7FEE7FEE7FEE7FEE7FEE7FEE7FEE777
:100160003505000831010008064C074D06E0E0683F
:1001700040F0010394E8070098471034AC42F6D3EE
:10018000FFF7DAFF7407000894070008FEE77047DE
:1001900010B5012000F030F800280ED04FF080405C
:1001A0000088C00702D000F0B2FA01E000F0A4FA23
:1001B000BDE81040012000F001B810BD0149086001
:1001C00070470000140401401CB50121084600F0EE
:1001D0004DF90021084600F083F800218DF8041045
:1001E000012008218DF8051000908DF80600684662
:1001F00000F012F81CBD0000064A014600201268FB
:10020000044B0A4014331B680B4202D0002A00D072
:10021000012070470004014030B51A4A8379016813
:1002200053B313688B431360111D0B680468A34319
:100230000B60017911440B68046823430B60114B78
:10024000083319680468A14319601C1D21680568FA
:10025000A94321604179102905D011440A6800683A
:1002600002430A6030BD19680268114319602168B1
:1002700000680143216030BD0079104402688A4360
:10028000026030BD0004014038B501211C2000F09F
:10029000EDF87F20ADF8000010208DF80300032555
:1002A0008DF8025069460B4800F02EF80124ADF895
:1002B00000406946084800F027F8ADF800400420E7
:1002C0008DF803008DF802506946044800F01CF8D0
:1002D00038BD0000000C0140001001400008014042
:1002E00010B58A0721F003040649120F21440F2399
:1002F0008C6893409C438C608B68904003438B6078
:1003000010BD000000000140F0B5CC78002204F0E0
:100310000F03E40601D58C7823430C784FF00F0CC3
:1003200014F0FF0F4FF0010E1BD005680E880EFA77
:1003300002F42640A64210D196000CFA06F725EAF0
:10034000070703FA06F5CE783D43282E02D0482E43
:1003500002D002E0446100E00461521C082AE5D3A7
:1003600005600A88FF2A1CD94468002202F10806A9
:100370000EFA06F50E882E40AE420ED196000CFA0B
:1003800006F7BC4303FA06F7CE783C43282E00D18B
:100390004561CE78482E00D10561521C082AE5D36C
:1003A0004460F0BDFEE7FEE7704708B51C208DF8FD
:1003B000000001208DF8010000218DF802108DF859
:1003C0000300684600F012F808BD08B506208DF855
:1003D000000000208DF801008DF8020001208DF84A
:1003E0000300684600F002F808BD000030B50F2396
:1003F000C27801780125F2B1144A126801F1E021B6
:1004000002F4E062C2F5E062120AC2F10404D340D1
:100410004278A24084781C401443220181F80024D1
:10042000007800F01F018D404009800000F1E020BD
:10043000C0F8005130BD01F01F0085404809800020
:1004400000F1E020C0F8805130BD00000CED00E06C
:1004500070470000044A0029D16901D0014300E03F
:100460008143D1617047000000100240044A002916
:10047000916901D0014300E0814391617047000020
:1004800000100240704700000CB500222648009280
:100490000192016841F4803101604FF4A06301686A
:1004A00001F4003101910099491C0091019911B9A1
:1004B00000999942F3D10168890333D50121019153
:1004C0001A490A6842F010020A600A6822F0030220
:1004D0000A600A6842F002020A60416841604168AD
:1004E0004160416841F480614160416821F47C11C0
:1004F0004160416841F4E8114160016841F0807158
:10050000016001688901FCD5416821F00301416067
:10051000416841F0020141604168C1F38101022953
:10052000FAD10CBD01920CBD001002400020024027
:10053000704700000F4810B5016841F001010160EB
:1005400041680D4A1140416001680C4A1140016048
:10055000016821F480210160416821F4FE014160BD
:100560004FF41F018160FFF78FFF05494FF00060D6
:10057000086010BD001002400000FFF8FFFFF6FE0B
:1005800008ED00E010B501218C07204600F02FF89F
:10059000002817D00C48C16841F00201C1600B4A25
:1005A0000B4B501E0178525C1A60491CC9B2017095
:1005B0000A2901D1002101702046BDE81040012127
:1005C00000F008B810BD000000100140010000203C
:1005D0000C0C0140C943018270470029018802D0F8
:1005E00041F0010101E021F0010101807047024664
:1005F0000020138A92890B4202EA010202D0002AEB
:1006000000D001207047002A828901D00A4300E00F
:100610008A4382817047000030B502881B4C1C4D14
:10062000A0420DD0A8420BD0B0F1804F08D0194B9A
:10063000984205D0184B984202D0184B984203D1EB
:1006400022F070034A881A43154B984206D0154B86
:10065000984203D022F44073CA881A4302808A88E1
:1006600082850A880285A0420AD0A84208D00E4A94
:10067000904205D00D4A904202D00D4A904201D1DD
:10068000097A01860121818230BD0000002C0140E1
:10069000003401400004004000080040000C00400D
:1006A00000100040001400400040014000440140A0
:1006B000004801403EB501210846FFF7CBFE40F25D
:1006C000E730ADF8040041F61F40ADF8000000200F
:1006D000ADF80600ADF802004FF0804469462046B0
:1006E000FFF79AFF012211462046FFF78CFF0121F8
:1006F0002046FFF772FF3EBD10B501218807FFF7C6
:100700006CFF0121BDE810400846FFF7A3BE10B5FD
:100710004FF0804400212046FFF75FFF00210120B9
:10072000FFF798FE2046BDE810400121FFF752BFB9
:10073000FEE702E008C8121F08C1002AFAD170477C
:100740007047002001E001C1121F002AFBD1704751
:10075000FFF79AFDFFF7AEFFFFF727FEFFF734FD27
:10076000FFF733FE0248C16841F00201C160FEE7B5
:100770000010014094070008000000200C00000059
:1007800032070008A00700080C0000200404000045
:1007900042070008003F065B4F666D7D077F6F00D4
:0400000508000131BD
:00000001FF
