:020000040800F2
:1000000010070020CD0100085D0500085505000817
:1000100059050008390400088F0B00080000000093
:10002000000000000000000000000000FD060008C5
:100030003D04000800000000E5050008E90700088D
:10004000E7010008E7010008E7010008E7010008F0
:10005000E7010008E7010008E7010008E7010008E0
:10006000E7010008E7010008E7010008E7010008D0
:10007000E7010008E7010008E7010008E7010008C0
:10008000E7010008E7010008E7010008E7010008B0
:10009000E7010008E7010008E7010008E7010008A0
:1000A000E7010008E7010008E7010008E701000890
:1000B000E7010008E7010008E7010008E701000880
:1000C000E7010008E7010008E7010008E701000870
:1000D000E70100084D08000881090008E701000851
:1000E000E7010008E7010008E7010008E701000850
:1000F000E7010008E7010008E7010008E701000840
:10010000E7010008E7010008E7010008E70100082F
:10011000E7010008E7010008E7010008E70100081F
:10012000E7010008E7010008E7010008E70100080F
:1001300000F002F800F03AF80AA090E8000C8244BF
:100140008344AAF10107DA4501D100F02FF8AFF29C
:10015000090EBAE80F0013F0010F18BFFB1A43F0A5
:10016000010318472414000044140000103A24BF6F
:1001700078C878C1FAD8520724BF30C830C144BF0C
:1001800004680C607047000000230024002500264E
:10019000103A28BF78C1FBD8520728BF30C148BFEA
:1001A0000B6070471FB51FBD10B510BD00F07EF885
:1001B0001146FFF7F7FF00F00FFE00F09CF803B4C4
:1001C000FFF7F2FF03BC00F09FF8000009488047EA
:1001D00009480047FEE7FEE7FEE7FEE7FEE7FEE729
:1001E000FEE7FEE7FEE7FEE704480549054A064B41
:1001F00070470000ED0700083101000810010020E1
:100200001007002010030020100300204FF0000210
:100210000429C0F0128010F0030C00F01E80CCF115
:10022000040CBCF1020F18BF00F8012BA8BF20F886
:10023000022BA1EB0C0100F010B85FEAC17C24BFD7
:1002400000F8012B00F8012B48BF00F8012B704784
:100250007047704770474FF0000200B51346944650
:100260009646203922BFA0E80C50A0E80C50B1F10E
:100270002001BFF4F7AF090728BFA0E80C5048BF22
:100280000CC05DF804EB890028BF40F8042B08BFC0
:10029000704748BF20F8022B11F0804F18BF00F8BC
:1002A000012B704700487047B00000207546FFF7EB
:1002B000F9FFAE4605006946534620F00700854623
:1002C00018B020B5FFF790FFBDE820404FF00006C2
:1002D0004FF000074FF000084FF0000B21F007012E
:1002E000AC46ACE8C009ACE8C009ACE8C009ACE871
:1002F000C0098D46704710B50446AFF30080204614
:10030000BDE81040FFF75BBF01491820ABBEFEE718
:1003100026000200704700002DE9F0410446002647
:100320003F48007858B9552C78D13E483E49097865
:10033000445401203A4908703B4908706EE038483F
:10034000007801280BD1512C68D1364836490978FC
:100350004454022032490870334908705EE0304846
:10036000007802285AD1304801780078401C2E4A83
:1003700010702C484454104600780B284ED10025AC
:1003800005E02848405D3044C6B2681CC5B20A2D5D
:10039000F7DB2448807AB0423BD122498978214A50
:1003A000D27841EA022000F05BFF80464FF08E4198
:1003B00000F060FE07464FF0834100F099FF1B49B3
:1003C000086018490979174A527941EA022000F079
:1003D00047FF80464FF08E4100F04CFE07464FF03D
:1003E000834100F085FF124908600E4989790D4A62
:1003F000D27941EA022000F033FF80464FF08E416F
:1004000000F038FE07464FF0834100F071FF0949C4
:10041000086000200249087003490870BDE8F081B7
:1004200004000020A300002005000020140000208C
:10043000180000201C00002000BFFEE770472DE9D7
:10044000F04102460025002600200023002400275A
:1004500091F803C00CF00F0591F803C00CF0100CDC
:10046000BCF1000F03D091F802C04CEA050591F8E9
:1004700000C0BCF1000F31D0146800202BE04FF019
:10048000010C0CFA00F3B1F800C00CEA03069E421E
:1004900020D183004FF00F0C0CFA03F7BC4305FA90
:1004A00003FC4CEA040491F803C0BCF1280F06D108
:1004B0004FF0010C0CFA00FCC2F814C00AE091F8ED
:1004C00003C0BCF1480F05D14FF0010C0CFA00FC41
:1004D000C2F810C0401C0828D1D31460B1F800C085
:1004E000BCF1FF0F34DD546800202EE000F1080C51
:1004F0004FF0010808FA0CF3B1F800C00CEA03064B
:100500009E4221D183004FF00F0C0CFA03F7BC433D
:1005100005FA03FC4CEA040491F803C0BCF1280F6F
:1005200005D100F1080C08FA0CF8C2F8148091F813
:1005300003C0BCF1480F07D100F1080C4FF00108CF
:1005400008FA0CF8C2F81080401C0828CED354607A
:10055000BDE8F08100BFFEE700BFFEE77047000086
:1005600070B5002100230F22C47804B3154C246811
:1005700004F4E064C4F5E064210AC1F10403CA4054
:10058000447804FA03F184781440214309010E4CA5
:100590000678A155047804F01F050124AC400578C5
:1005A0006D11AD0005F1E025C5F8004109E00478C2
:1005B00004F01F050124AC40044D0678761145F87F
:1005C000264070BD0CED00E000E400E080E100E0BA
:1005D00002490143024A1160704700000000FA0519
:1005E0000CED00E07047000029B1064AD2690243D1
:1005F000044BDA6104E0034AD2698243014BDA61B9
:10060000704700000010024029B1064A9269024377
:10061000044B9A6104E0034A92698243014B9A6158
:10062000704700000010024030B500210022002475
:1006300000232D4D6D6805F00C0121B1042905D072
:10064000082923D105E0294D056022E0274D0560EA
:100650001FE0254D6D6805F47012234D6D6805F49B
:100660008034022505EB92421CB9214D55430560AB
:100670000BE01D4D6D6805F400351DB11C4D554353
:10068000056002E0194D5543056002E0174D056015
:1006900000BF00BF144D6D6805F0F0010909154D4C
:1006A0006B5C0568DD4045600F4D6D6805F4E061E9
:1006B000090A104D6B5C4568DD4085600A4D6D6828
:1006C00005F46051C90A0B4D6B5C4568DD40C5609F
:1006D000054D6D6805F44041890B074D6B5CC5689D
:1006E000B5FBF3F5056130BD0010024000127A0041
:1006F00000093D002000002030000020704710B5A8
:1007000000F002F810BD00000CB500200190009030
:100710003348006840F480303149086000BF3048F9
:10072000006800F4003000900198401C019000988F
:1007300018B90198B0F5A06FF1D12948006800F40C
:10074000003010B10120009001E0002000900098DE
:10075000012843D12348006840F010002149086077
:100760000846006820F0030008600846006840F072
:10077000020008601A484068194948600846406805
:1007800048600846406840F4806048600846406819
:1007900020F47C1048600846406840F4E810486047
:1007A0000846006840F08070086000BF0C48006890
:1007B00000F000700028F9D00948406820F00300DC
:1007C000074948600846406840F00200486000BFA2
:1007D0000348406800F00C000828F9D10CBD000067
:1007E00000100240002002407047000010B513487E
:1007F000006840F00100114908600846406810494F
:1008000008400E494860084600680E4908400B49F8
:1008100008600846006820F48020086008464068A8
:1008200020F4FE0048604FF41F008860FFF767FF68
:100830004FF000600449086010BD00000010024045
:100840000000FFF8FFFFF6FE08ED00E010B540F2F3
:100850002551124800F0D6F8F8B1104800F08EF992
:10086000C4B20F48007863280EDA0D490878411C9D
:100870000B4A11700B490C540A2C08D10020127835
:1008800088540749087002E000200549087040F2CA
:100890002551024800F08EF800BF10BD003801401D
:1008A000000000203400002000B587B0012144F290
:1008B0000400FFF7A9FE4FF40070ADF818001820EF
:1008C0008DF81B0003208DF81A0006A91C48FFF7BD
:1008D000B6FD4FF48060ADF8180004208DF81B00C1
:1008E00006A91748FFF7ABFD4FF416500290002001
:1008F000ADF80C00ADF80E00ADF81000ADF8140026
:100900000C20ADF8120002A90E4800F0CBF801222D
:1009100040F225510B4800F09FF80121094800F0F2
:1009200058F825208DF8040001208DF805008DF879
:1009300006008DF8070001A8FFF712FE07B000BD02
:10094000000801400038014010B5044600BF802176
:10095000044800F04AF80028F9D02146014800F088
:1009600012F910BD0038014010B5044603E014F838
:10097000010BFFF7E9FF20780028F8D110BD000037
:1009800010B540F225510A4800F03CF801280ED17C
:10099000074800F0F3F8C4B2204600F08DF9204675
:1009A000FFF7BAFC40F22551014800F003F810BDF2
:1009B0000044004010B50022002340F66A14A14212
:1009C00000D100BF0A1201249440A3B2DC4304808A
:1009D00010BD21B1828942F40052828104E08289F3
:1009E0004DF6FF731A408281704702460020B1F530
:1009F000007F00D100BF13880B400BB1012000E045
:100A00000020704770B50246002400230025002016
:100A100040F66A16B14200D100BFC1F3421501F0A1
:100A20001F03012606FA03F3012D02D196893340F4
:100A300006E0022D02D1168A334001E0968A334047
:100A40000C12012606FA04F41688344013B10CB1D6
:100A5000012000E0002070BDF0B503460024002610
:100A60000025002040F66A17B94200D100BF1846A1
:100A7000C1F3421401F01F06012707FA06F5012C05
:100A800001D10C3004E0022C01D1103000E0143010
:100A90001AB107682F43076002E00768AF43076099
:100AA000F0BD00002DE9F04786B005460E46002453
:100AB000A24600BFA1460027B08900B100BF2F4663
:100AC0002C8A4CF6FF700440F08804432C82AC89D9
:100AD0004EF6F3100440B088318908437189084309
:100AE0000443AC81AC8A4FF6FF400440B089044314
:100AF000AC8201A8FFF798FD1F48874202D1DDF8BC
:100B000010A001E0DDF80CA0A88900F4004040B17D
:100B10000AEBCA0000EB0A1031684900B0FBF1F89B
:100B200007E00AEBCA0000EB0A1031688900B0FB4D
:100B3000F1F86420B8FBF0F004012009642101FB06
:100B40001089A88900F4004040B1322000EBC900B0
:100B5000B0FBF1F000F00700044308E0322000EBA6
:100B600009106421B0FBF1F000F00F0004432C8168
:100B700006B0BDE8F08700000038014001468888D3
:100B8000C0F308007047C1F308028280704700BFBD
:100B9000FEE730B5024600230124002100E0491C95
:100BA000505C2028FBD0505C2D2803D14FF0FF343F
:100BB000491C03E0505C2B2800D1491C06E0505C26
:100BC000303803EB830500EB4503491C505C3028AB
:100BD00002DB505C3928F2DD04FB03F030BD00007D
:100BE0002DE9F04F87B007460C469046384600F096
:100BF00003FB0546284600F01BFB8246394600F001
:100C000043FC81460021384600F03EFB10D22D20E7
:100C100004F8010B87F00047384600F0EDFA05466E
:100C2000284600F005FB8246394600F02DFC81463F
:100C3000002600BF0A2095FBF0F100FB1150303078
:100C4000C2B23046761C02A90A540A2095FBF0F580
:100C5000002DEFDC05E0701E064602A9085C04F8D2
:100C6000010B002EF7DCB8F1000F1EDD2E2004F87A
:100C7000010B4FF0000A16E00E49484600F038FB21
:100C80008146484600F0B8FA83460BF1300004F87C
:100C9000010B584600F0CCFA4946019000F0F4FBF5
:100CA00081460AF1010AC245E6DB0020207007B048
:100CB000BDE8F08F000020412DE9F04104460026F8
:100CC0003E48007858B9552C75D13D483D490978C2
:100CD00044540120394908703A4908706BE037489C
:100CE000007801280BD1532C65D135483549097856
:100CF0004454022031490870324908705BE02F48A3
:100D00000078022857D12F4801780078401C2D4ADE
:100D100010702B484454104600780B284BD1002506
:100D200005E02748405D3044C6B2681CC5B20A2DB4
:100D3000F7DB2348807AB04238D121498978204AAC
:100D4000D27841EA022000F08BFA80464FF08E41C3
:100D500000F090F907461C4900F0CAFA1B490860E8
:100D600017490979164A527941EA022000F078FAC7
:100D700080464FF08E4100F07DF90746124900F0A1
:100D8000B7FA134908600E4989790D4AD27941EAC8
:100D9000022000F065FA80464FF08E4100F06AF9BB
:100DA0000746094900F0A4FA0A49086000200349EF
:100DB000087004490870BDE8F081000004000020BC
:100DC00098000020050000200000344308000020A7
:100DD0000C0000201000002098B04FF4C060FFF716
:100DE000F7FB4FF4165000F085F8FFF75DFD21A0EA
:100DF000FFF7BAFD28A0FFF7B7FD39E02A48FFF753
:100E0000C8FE074600202949087064212648FFF7DC
:100E1000FDF9012F02D0022F29D106E024A0FFF70F
:100E2000A3FD28A0FFF7A0FD21E02A4804682A4876
:100E300005682A480668032210A92046FFF7D0FE5D
:100E4000032208A92846FFF7CBFE03226946304655
:100E5000FFF7C6FE10A8FFF787FD08A8FFF784FD7F
:100E60006846FFF781FD1EA0FFF77EFD00BF00BFB3
:100E7000C4E7000048656C6C6F2066726F6D20538C
:100E8000544D33322076696120426C7565746F6F02
:100E90007468210D0A000000E4BDA0E5A5BDE4B81A
:100EA00096E7958C0D0A0000340000200000002019
:100EB000E8939DE78999E5B7B2E8BF9EE68EA55C09
:100EC000720A0000E5BC80E5A78BE4BBBBE58AA104
:100ED0005C720A00080000200C00002010000020B6
:100EE000E590AFE58AA8E59FBAE7A180E9A298322C
:100EF0000A00000010B586B0044601210420FFF767
:100F000083FB01214804FFF76FFB0420ADF81400B8
:100F100018208DF8170003208DF8160005A91C482D
:100F2000FFF78DFA0820ADF8140004208DF81700A3
:100F300005A91748FFF783FA01940020ADF80800CF
:100F4000ADF80A00ADF80C00ADF810000C20ADF8BB
:100F50000E0001A90F48FFF7A5FD012240F225511F
:100F60000C48FFF779FD01210A48FFF732FD2620E2
:100F70008DF8000000208DF8010001208DF802009E
:100F80008DF803006846FFF7EBFA06B010BD0000CD
:100F9000000801400044004090EA010F48BF81F082
:100FA000004100F18282421A3CBF801A89184FEA40
:100FB000D0524FF07F4C1CEA410FA2EBD15318BF27
:100FC0009CEA026F00F03B804FF0004C4CEA00209E
:100FD0004CEA012121FA03FC10EB0C0C1ED202F1A9
:100FE000FF325FEA1C2040EBC25038BF70471CF054
:100FF0007F0F4FEA400C18BFBCF17F4F38BF7047DE
:10100000C3F12003994008BF20F00100BCF17F4FDD
:1010100038BF7047A0F1C04000F031BA4FEA3C0041
:10102000000A40EBC25028BF1CF0FF0F4FEA400CF3
:10103000E6D018BFBCF17F4F38BF7047EAE79CEAA3
:10104000026F05D010EA5C0F08BF00F00040704747
:1010500010B500F0CEF900BF64FBBE3E401058BF93
:10106000C0F14040491058BFC1F140418142EFF307
:10107000008070474FF47F0C1CEAD0121EBF1CEAA0
:10108000D11392EA0C0F93EA0C0F00F0858090EADE
:10109000010F48BF42F4807240F4000C41F400009C
:1010A0002CF07F4120F07F4000B58142A2EB03028B
:1010B0000FF2081CACEB504EC0F100009EF800E0AF
:1010C0004FEA4E0E00FB0EFC38BF49004FEA2C1CC5
:1010D00002F5FA020CFB0EF34FEACE1E4FEA112C7A
:1010E0004FEAC1210EEB635E42EB22420EFB0CFC89
:1010F0004FEA1C5300FB03114FEA112C4FEA013158
:101100000EFB0CFC4FEADC4C00FB0C11C14228BF6B
:1011100009184CEB03335DF804EB10EB410143EB92
:10112000C250B2F57C0F38BF704729D512F0F00FCE
:101130001CBF00F1C04000F0004070470081828376
:101140008485868788898B8C8D8E8F9192939596D6
:1011500097999A9C9D9FA0A2A3A5A7A8AAACAEB060
:10116000B2B3B5B7B9BCBEC0C2C5C7C9CCCED1D465
:10117000D7D9DCDFE2E6E9ECF0F3F7FAFE00000095
:101180004FEA400C0CF1807CBCF17E4F28BF7047C9
:10119000B0F1C04000F073B990EA010F0CEAD1132E
:1011A00048BF42F48072624538BF634507D213F4EA
:1011B0007F0F16D080EA010000F00040704710B5A4
:1011C00000F017F9097EFC3E00F005B880EA010046
:1011D00000F00040704780EA010000F0004000F09D
:1011E0004EB912F47F0F04BF0248704780EA010035
:1011F00000F045B90000C07F41000B0ED3F19E0204
:1012000008D950F400034FEA032323FA02F048BF41
:101210004042704710B500F0ECF800BF49922480BE
:10122000002070476FF0004282EA20007047000003
:1012300010F0004148BF4042B0FA80F310FA03F2C8
:10124000C3F19D030BD051EAC35101EB12205306A9
:1012500038BF704700F1010008BF20F0010070475F
:10126000B0FA80F310FA03F2C3F19D030AD0D90556
:1012700001EB1220530638BF704700F1010008BF90
:1012800020F001007047000050EA010C00F11380CB
:101290001CF5000F58BFBCF5000F01D48842704701
:1012A00007D710F5000F58BF11F5000F15D488426D
:1012B0007047894270471CF5000F04D5BCF5000F3C
:1012C000F7D5814270474FF0807C1CEB400F38BF50
:1012D0001CEB410F01D28142704710B500F089F834
:1012E000922449004FF000504FF08051FFF7B6BEF6
:1012F0004FF47F0C1CEAD0121EBF1CEAD11392EAF5
:101300000C0F93EA0C0F00F0478090EA010F48BFE2
:1013100042F480724FF0004C4CEA00204CEA01216C
:1013200002EB0302A0FB0113A2F50002002918BF83
:1013300043F001035B0028BF4FEA330342EB224234
:101340005FEA132C4CEBC2502EBFBCEB436FB2F5DF
:101350007C0F70474FEA036CBCF1004F08BF20F0D0
:101360000100B2F57C0F38BF70470BD582F0FF0249
:1013700012F5803FC8BF704700F1C040D8BF00F0F1
:101380000040704700F5000C5FEA4C0C48BF704706
:10139000B0F1C04000F073B890EA010F0CEAD1132D
:1013A00048BF42F48072624538BF634504D280EA88
:1013B000010000F00040704710B500F01AF800BFBF
:1013C0008900013E00F007B800F009B85FEA410C5F
:1013D0005FEA1C6C08D080EA010000F050B85FEAB8
:1013E000400C5FEA1C6CF6D14FF00040A0F5800085
:1013F00070470EF1020E2EF0030E5EF8044B2442ED
:1014000004D44FEA4102B2F17F4F11D84FEA4003B2
:10141000B3F17F4F0CD80ED14FEAD07CB2F17F4FA1
:101420000CEB4C0C0CF1020C08BF4CEBD17C04E033
:101430004FF0080C01E04FEAD17C0CEB4C0324FA8E
:1014400003F404F00704B4F1040C06D20EEB840C90
:10145000BDE810404CF0010C6047DFE80CF00708D5
:1014600002024FF00040A0F5800010BD0846420087
:1014700018BFD2F1807288BF00F0004010BDFF217C
:1014800041EAD050C005704780F0004090EA010F5B
:101490007FF589AD81F0004100F007B890EA010FB7
:1014A00048BF81F000413FF57EAD421A04D882F07A
:1014B0000042A0EB020011444FEAD0524FF07F4CA3
:1014C0001CEA410FA2EBD15318BF9CEA026F4AD02D
:1014D0004FF0004C4CEA00204CEA012121FA03FCB9
:1014E000B0EB0C0C0FD412F0FE0F36D05FEA4C00BC
:1014F0001DD5001240EBC25038BF70471CF03F0FA3
:1015000018BF70470BE0A2F101025FEA1C2040EB1C
:10151000C25038BF70471CF07F0F18BF7047C3F12F
:101520002003994014BF401E20F00100704780083E
:101530004FEA122308BF7047B0FA80FCA2EB0C02FE
:10154000CCF1280C60FA0CF093EA122F04BF00EBE8
:10155000C25070474FEAC3707047130A5FEADC104D
:1015600008BF7047F6E79CEA026F04D010EA5C0FF0
:1015700008BF0020704710B5FFF73BFF40DFF63E85
:1015800081F0004070470000A8150008000000200E
:10159000340000006C010008DC1500083400002055
:1015A000DC060000880100080000000000000000C8
:1015B000000000000000000000000000000000002B
:1015C0000000000000000000000000000102030411
:0C15D000010203040607080902040608D3
:0400000508000131BD
:00000001FF
