:020000040800F2
:1000000048080020D1010008F1280008DD27000879
:1000100000000000000000000000000000000000E0
:10002000000000000000000000000000F5280008AB
:100030000000000000000000F32800083929000833
:100040000102000801020008010200080102000884
:100050000102000801020008010200080102000874
:100060000102000801020008010200080102000864
:100070000102000801020008010200080102000854
:10008000010200080000000000000000010200085A
:10009000000000000102000801020008010200083F
:1000A000000000000102000801020008010200082F
:1000B000010200080000000001020008010200081F
:1000C00000F002F800F058F80CA030C808382418E6
:1000D0002D18A246671EAB4654465D46AC4201D180
:1000E00000F04AF87E460F3E0FCCB646012633425A
:1000F00000D0FB1AA246AB4633431847E02A000063
:10010000002B0000103A02D378C878C1FAD8520701
:1001100001D330C830C101D504680C6070470000BD
:100120000023002400250026103A01D378C1FBD813
:10013000520700D330C100D50B60704710B5642959
:1001400002D100F06FF910BD782902D100F0A0F9BA
:1001500010BD732902D100F0F0FB10BD002010BDCE
:100160001FB50098019900F030FF00F02FFC1FBD73
:1001700010B500F097FC10BD00F0F9FC1146FFF738
:10018000EFFF02F0A1FC00F0EFFE03B4FFF7F0FF79
:1001900003BC01F0ADF8000070B505460C461646EC
:1001A00002E00FCC0FC5103E102EFAD2082E02D35B
:1001B00003CC03C5083E042E07D301CC01C5361F6E
:1001C00003E021782970641C6D1C761EF9D270BD85
:1001D0000F4880F308880F480168090E0E4A9142C3
:1001E00005D10E480E4901600E480F4901600F48C5
:1001F00080470F480047FEE7FEE7FEE7FEE7FEE721
:10020000FEE700000B480C490C4A0D4B70470000FC
:1002100048080020040000001F00000018100240E1
:1002200001000000000001400000000091290008CA
:10023000C1000008480200204808002048040020AF
:100240004804002010B5202A04DB0846203AD0409C
:10025000002110BD0B462024D340D040A21A91406B
:100260000843194610BDFEB5054610460C46184316
:1002700073D0AE468C460020AD1A01469C4167D330
:100280006646002701243D46B61A9D4102D3134617
:100290003A462124654676462F04360C3E432D0C03
:1002A000B61A9D4104D3150C1B042B4312041034C1
:1002B000654676462F06360A3E432D0AB61A9D41FC
:1002C00004D3150E1B022B431202083465467646F2
:1002D0002F0736093E432D09B61A9D4104D3150F49
:1002E0001B012B431201241D65467646AF07B60855
:1002F0003E43AD08B61A9D4104D3950F9B002B4396
:100300009200A41C65467646EF0776083E436D08CA
:10031000B61A9D411AD392185B41641C16E000186E
:10032000764665464941B71A9D410191009009D32F
:100330006046B11A98418E4684460098019900257E
:10034000401C6941DD0752082A435B08641EE6D55C
:100350007246634603B0F0BDFFE700200146C04689
:10036000C0462A462346F5E70FB4054910B503AA4F
:10037000029800F0E7FA10BC08BC04B0184700006F
:100380003C01002070B5044685690068C10601D5AE
:10039000302600E02026C00707D070BD62683046D6
:1003A000A1689047206A401C20626D1EF6D570BD82
:1003B00070B5044685690078C00707D170BD6268D2
:1003C000A16820209047206A401C20626D1EF6D54F
:1003D00070BD70B50C460546012A05D02878800608
:1003E00000D5EA69002302E0012305E05B1C93428B
:1003F00002D2E05C0028F9D1A869E618C01AA86109
:10040000286AC01828622846FFF7BCFF04E06A6823
:100410002078A968641C9047B442F8D32846FFF7B7
:10042000C7FF70BDF7B5002575291068009914A69F
:1004300011D0C046C046002802DA404211A608E0AA
:10044000009909688A0701D50FA602E0490704D57B
:100450000EA6012501E0C046C046009F00242437B7
:1004600004E000F083FA30313955641C0028F8D1DB
:100470002B4632462146009800F0F4F9FEBD0000FC
:10048000000000002D0000002B00000020000000F4
:1004900070B504460D4621461068C046C046218806
:1004A000090502D50F4A7A4402E00E4A7A440E3218
:1004B00023460021243305E006070009360F965D28
:1004C0005E54491C0028F7D120780023000705D589
:1004D000702D03D0002901D002231132204600F0F4
:1004E000C1F970BDEA260000F3B50446002081B0D2
:1004F00020622046E168884700287DD0252802D068
:100500006268A16883E0454F00257F442046E1688A
:1005100088472028064608DB312E06D2B819203835
:100520000078002801D00543F0E7A80701D5042092
:1005300085430020E0610746A0612A2E0AD030469C
:1005400002F062FA002827D0B8000019303E00906F
:10055000866119E00298BA00121902C891610290EE
:100560002046E1688847012F064617D1E069002838
:100570001FDA202085431CE000980A218069484347
:1005800000998019303888612046E168884706461E
:1005900002F03AFA0028EFD1012F0AD02E2E08D10E
:1005A0002046E16888470646202005437F1C022F2D
:1005B000C3DBA069002803DA4042A06101200543A3
:1005C000E80701D010208543002E24D03046413862
:1005D000192803D80120C002054320362046256093
:1005E0003146029A1546FFF7A9FD00280CD00128D4
:1005F00007D0ED1DE80800E00DE0C00008300290D3
:1006000077E72D1D029574E762683046A168904730
:10061000206A401C6CE7206AFEBD0000AE26000088
:10062000F8B5042A2CD3830712D00B78491C037029
:10063000401C521E83070BD00B78491C0370401CD2
:10064000521E830704D00B78491C0370401C521EB5
:100650008B079B0F05D0C91ADF002023DE1B08C9BA
:100660000AE0FFF799FDF8BD1D4608C9FD401C468C
:10067000B4402C4310C0121F042AF5D2F308C91A43
:10068000521EF0D40B78491C0370401C521EEAD451
:100690000B78491C0370401C012AE4D409780170CE
:1006A000F8BD01E004C0091F0429FBD28B0701D566
:1006B0000280801CC90700D00270704700290BD04F
:1006C000C30702D00270401C491E022904D38307CD
:1006D00002D50280801C891EE3E70022EEE700229B
:1006E000DFE70378C2781946437812061B021943E4
:1006F0008378C0781B04194311430902090A0006D4
:1007000008437047002203098B422CD3030A8B4213
:1007100011D300239C464EE003460B433CD40022F9
:1007200043088B4231D303098B421CD3030A8B420B
:1007300001D394463FE0C3098B4201D3CB01C01AD9
:10074000524183098B4201D38B01C01A52414309A4
:100750008B4201D34B01C01A524103098B4201D392
:100760000B01C01A5241C3088B4201D3CB00C01AFF
:10077000524183088B4201D38B00C01A5241430877
:100780008B4201D34B00C01A5241411A00D201469C
:100790005241104670475DE0CA0F00D04942031035
:1007A00000D34042534000229C4603098B422DD384
:1007B000030A8B4212D3FC22890112BA030A8B422C
:1007C0000CD3890192118B4208D3890192118B427B
:1007D00004D389013AD0921100E08909C3098B4200
:1007E00001D3CB01C01A524183098B4201D38B0143
:1007F000C01A524143098B4201D34B01C01A5241E6
:1008000003098B4201D30B01C01A5241C3088B422A
:1008100001D3CB00C01A524183088B4201D38B0015
:10082000C01A5241D9D243088B4201D34B00C01A9F
:100830005241411A00D20146634652415B101046B4
:1008400001D34042002B00D54942704763465B10FC
:1008500000D3404201B50020C046C04602BD7047EB
:1008600070477047FFB504460D4681B024300090B4
:100870002168880604D51022E0699143216000E0D8
:100880000120A84201DD471B00E000270498A16970
:100890007A191018081AA0612078C00602D42046E0
:1008A000FFF770FD002608E003986268A168805D8C
:1008B0009047206A401C761C206204988642F3DB35
:1008C0002078C0060AD52046FFF75CFD06E0626886
:1008D000A16830209047206A401C206238467F1E65
:1008E0000028F4DC07E000986268A168405D90474A
:1008F000206A401C206228466D1E0028F3DC20463A
:10090000FFF756FD2078000602D5022005B0F0BDA5
:100910000120FBE710B54369002B02D0C046C0465A
:1009200001E0FFF756FD012010BD12780146243189
:100930000A7000224A700122ECE711680022D243BB
:10094000E8E70000084B70B50D467B4400F027F83F
:100950000446284600F036F8002802D00020C043A4
:1009600070BD204670BD00002D21000001468008AA
:10097000081A02091018020A1018020C1018C008F0
:10098000820012185200891A01E0401C0A390A2913
:10099000FBD2704701694A1C02610878704700B5B4
:1009A0008FB002910021059105490193794403918B
:1009B000114604906846FFF797FD0FB000BD000098
:1009C000E5FFFFFFC06880210840704710B543482D
:1009D0005421FFF784FE42485421FFF780FE41482E
:1009E0005421FFF77CFE40483C493D4B404A0160A2
:1009F0003E4803603B4810605A1C0A65411C19655B
:100A0000012101653C48354A3AA1784400F012FAC8
:100A1000002804D1384878440C3800F0ADFA384842
:100A20002F4A36A1784400F005FA002804D1344852
:100A300078440C3800F0A0FA32482A4A2FA17844B2
:100A400000F0F8F9002804D12E4878440C3800F062
:100A500093FA40232148DC000021224600F0C4F92B
:100A6000002804D0244878445C3800F085FA1C48FB
:100A700022464023002100F0B7F9002804D0204886
:100A800078445C3800F078FA16482246102300219A
:100A900000F0AAF9002804D01A4878445C3800F025
:100AA0006BFA10BD0F4870B5006D44080B48640028
:100AB00000F034FA0A4800F031FA0A4800F02EFA41
:100AC00009E0206D450820466D0000F027FA204619
:100AD00000F06CF82C46002CF3D170BDE80000202B
:100AE0003C010020900100202C000020300000205C
:100AF0003400002072000000BF21000077000000D9
:100B0000A9210000932100000EB50191009000F092
:100B1000CDFB029069460120ABBE0EBD08B569460B
:100B200000900220ABBE08BD1FB56B4607C36946E7
:100B30000520ABBE04B010BD1FB56C460FC469469E
:100B40000620ABBEF6E708B5694600900920ABBEAB
:100B500008BD1CB500900A2001916946ABBE1CBDC2
:100B6000704708B5694600900C20ABBE08BD7546BD
:100B700000F008FAAE46050069465346C008C000BA
:100B8000854618B020B5FFF73DFB60BC002749083B
:100B9000B6460026C0C5C0C5C0C5C0C5C0C5C0C515
:100BA000C0C5C0C5403D49008D46704770B504467C
:100BB000051F00F0EDF90068002C1AD0446801E030
:100BC00020466468002C01D0AC42F9D301680A18B1
:100BD000AA4204D12A6805468918016000E04560F0
:100BE00028684119A14205D16168696021684018EF
:100BF000286070BD6C6070BDF8B505460C46C868CD
:100C00000521C9048843012189050843E060800665
:100C100002D5204600F008FB7149E0680140022936
:100C200003D0204600F0AAFABCE0052101224903C6
:100C30000140D20391420FD1C00306D56168E06A3A
:100C4000884200D80846606006E02069E062606083
:100C50006069FFF786FFA061A1680022EEB200295B
:100C60000EDAE06883050BD4C943A1600921226034
:100C700049030843E0606068411C61600670ACE0B5
:100C8000E068012149030843E060002020602069FA
:100C9000002831D16069FFF756FF01252746243728
:100CA000ED02002816D0A0898005800F08D0E069E9
:100CB00000F0B8F90028206102D0E068284318E06D
:100CC00001202761E061E0680321090288430121D6
:100CD00089020DE0E06900F0A5F900282061EFD05D
:100CE000E0682843E0608105890F03D1FF210131CD
:100CF0000843E06020696060E2683A4F2569D005EA
:100D00001FD56168E06A884200D80846411B05D0BB
:100D10002246284600F03CFA002843D1E068010250
:100D200004D5E56200206560A06053E0691CE162C3
:100D30006160E169491E3843A160E06030462E7071
:100D4000F8BD100201D53A4009E06068411C6160BD
:100D50000670E06838430A2EE06006D00022E16A9F
:100D60006068814203D90B4602E00122F7E703469F
:100D7000A7895B1B7F0504D4E7699F4201DD002A38
:100D80001ED0814200D801460F1A0020E56265603E
:100D9000002BA06009DD22461946284600F0F8F92C
:100DA000002802D00020C043F8BD002F08D0A06961
:100DB000E5626560C01BA061E06810210843E06047
:100DC000E068000209D56168A069E562491B401826
:100DD0006560A0610120C043F8BD3046F8BD000049
:100DE000821000000000010070B5C468A50713D090
:100DF000650211D4D51FF93D0AD0FF3D6D1E07D005
:100E0000FF3DFF3D022D07D101462431012305E0BE
:100E1000074E5D1EB54201D3012070BD0161C36163
:100E200041600F2109028C431443C460002070BD4F
:100E3000FFFFFF00F7B516460C46104600F06EF8AF
:100E40002078611C61280AD0722802D0772839D115
:100E500002E00125002404E00225042401E02D4DD8
:100E600008240222032301270878491C2B2806D0D6
:100E7000622807D02039C87F742807D008E01D43B6
:100E80001443F1E7042005433C43EDE710200443FD
:100E900000982146FFF738FE411C13D00021316134
:100EA00071600121F5604902F1617061200704D58C
:100EB00030460222002100F0E7F8306D38433065FB
:100EC0003046FEBD0020FEBDF8B50D460646124C6C
:100ED000206DC10704D0410804D044086400F7E73E
:100EE000224610E0542000F09DF8070010D0790849
:100EF000206D4900012211430843542120653846E2
:100F0000FFF7EDFB3A4629463046FFF793FFF8BD61
:100F10000020F8BD02800000E8000020FEB5044675
:100F2000466900690F4F0190E56800200090A8070E
:100F300007D0204600F052F93046FFF7EFFD0028B9
:100F400001DA3846FEBD280502D50198FFF72EFECE
:100F50004C212046FFF7C3FB206D40084000206570
:100F60000098FEBDFFFFFFFF10B50446C046C04617
:100F70002046FFF70AF910BD10B500F07DF900F02A
:100F800075F910BD00487047E4010020704700006B
:100F900000487047EC010020704770477047704769
:100FA00038B504460A4600206946C046C0460028B7
:100FB00005D002462046009900F0A7F9012038BD6F
:100FC00010B5012000F0F6F910BDF8B5C046C046D6
:100FD000054600200C461020C0460646A819A0422F
:100FE0000DD9324669460020C046C046070001D1EF
:100FF00000F0E0F90098A04200D00546C419FFF7C0
:10100000C7FFF61D07460560F008C00046192846D0
:1010100000F074F9B44204D031463868A21B00F0E5
:1010200074F9F8BD70B50646FFF7B2FF05683046A3
:101030000B30C408E400B44201D8002070BD6868D9
:101040002A46002818D00168A14211D30B46214638
:1010500008318B4208D3436801194B6003681B1B9E
:101060000B605160046001E041685160001D70BD7B
:10107000024640680028E6D121462846FFF790FF47
:101080000028DCD170BD0000F8B5044616460D46B8
:101090004769007B800730D03846FFF754FD0028B1
:1010A0002BD132461026002A25D0012A02D0022A4E
:1010B00023D104E0204600F042F945191BE03846F0
:1010C000FFF74FFDE16831430028E16004DA204674
:1010D00000F054F80120F8BDC9030BD56268E16A3D
:1010E000914200D81146A26989182269891A814261
:1010F00000DD08462D18002D01DA0220F8BDE16A56
:101100006068E268814206D29103E06203D5012162
:1011100049048A433243A669AE4211DCE16A814246
:1011200001D90B4600E003469F192369FF1AAF421D
:1011300006DD814201D90F4600E007469F4206D1F5
:10114000202002430020A060A56220600DE0AD1BBE
:10115000E669AE1B8142A66000D90846C01A281A6B
:10116000206058196060202082430348024000201C
:10117000E26040342072F8BDBFCFD7FFC168802243
:10118000114392039143C160002181600160704767
:10119000F7B514460E463348D5685769054209D05D
:1011A0003846A169FFF7D5FC002811DB2D48C04364
:1011B0000540E5602B46324638460099FFF7B4FCFF
:1011C0004200A1695208B21A89180028A16104D00E
:1011D0002046FFF7D3FF0020C043FEBD70B5044694
:1011E0000569C06A6168884200D80846E16805223E
:1011F000D2049143E160C90314D5A84209D0224624
:10120000411B2846FFF7C4FF002802D00020C0433E
:1012100070BDE56200206560A060E06801210904FE
:101220008843E060002070BD10B50446C0682021EE
:101230008843E060A16AA06988420ED02046FFF78B
:10124000CDFFE06803210903884310210843E060D3
:10125000A06AA0612069E06260600349E06808401C
:10126000E06010BD10000200BFBFFFFF10B50028F6
:1012700001D000F03DF810BD10B5014602A000F00D
:101280007FF8012010BD0000534947525452454495
:101290003A2052656469726563743A2063616E270F
:1012A00074206F70656E3A200000000030B5441C59
:1012B00003E00178401C00290DD08107F9D10B4BC8
:1012C000DD0104C8D11A91432940FAD0001B0A0657
:1012D00003D0C01E30BD001B30BD0A0401D0801EEB
:1012E00030BD0902FCD0401E30BD000001010101EB
:1012F00001491820ABBEFEE7260002000021016074
:101300004160806070471020704710B50346406808
:1013100001E003464068002801D08842F9D31868EC
:10132000C3188B4206D0CB1CD808C000001D411A40
:10133000521A0146081D0A60FFF738FC10BD10B5AF
:101340000146C268900703D0900607D5886A0AE074
:1013500000F03CF801210160881E10BD8B694868CF
:10136000C0180B69C01A40310B7A002B02D0497AA1
:10137000401A10BD1103FCD50028FADD401E10BD37
:1013800070B505460C460A2000E06D1C00F018F808
:10139000002D06D028780028F7D102E0641C00F068
:1013A0000FF8002C02D020780028F7D10A2000F096
:1013B00007F870BD10B500F00DF8FFF757FF10BD2E
:1013C00008B5694608700320ABBE08BD00487047E9
:1013D000E401002010B5012805D0002103A0FFF78B
:1013E000CFFF012010BD09A1F8E700005349475283
:1013F000544D454D3A204F7574206F6620686561E5
:1014000070206D656D6F7279000000003A204865AC
:101410006170206D656D6F727920636F7272757087
:101420007465640072B6FEE7064A0021D161064980
:101430000A6902231A430A6148610869402210437D
:1014400008617047C80000200020024010B5054B1D
:101450000022DA61044A13690124234313610180E5
:1014600010BD0000C80000200020024010B50B4A4B
:101470000020D168CB060A4904D5C8690223184365
:10148000C8611020D3685B0705D5CB6901242343CD
:10149000CB6104210843D06010BD00000020024051
:1014A000C800002070B5054600F0BEFD0646104C91
:1014B0000AE0681C08D0002D04D000F0B5FD801BA8
:1014C000A84201D9032070BDE068C007F1D1E068EF
:1014D000800601D52020E060E068C00602D4E06804
:1014E000400703D5FFF7C2FF012070BD002070BD8B
:1014F0000020024000B591B00D236A46137002230C
:10150000538010715171684600F00EF811B000BDA3
:1015100070B50C46054600F065FAA0430146284622
:1015200000F000FB70BD000070B5044600210846C5
:1015300000F0F8FA1021022000F0E9FA7F210620DD
:1015400000F0F0FA7F21072000F0ECFA002506E019
:1015500060190179052000F0E5FA6D1CEDB2608894
:10156000A842F5D82178080612D51021082000F0ED
:10157000D9FA1A484078002801D0E02100E0E8219B
:10158000092000F0CFFA2178002000F0CBFAFEE726
:10159000002000F0C7FA7D252D01062000F022FA78
:1015A000C00604D46D1E2D042D0CF6D107E0002DCD
:1015B00005D0042000F016FA0646002509E07D203B
:1015C000C04370BD052000F00DFA61196D1C087153
:1015D000EDB2B542F6D3002070BD0000000000203F
:1015E00010B508212820FFF793FF10BD10B5082182
:1015F000282000F08CFA10BD30B50925ED068BB01F
:1016000001220221284600F009FD012001F014FA10
:1016100000220221284600F001FD052001F00CFA0D
:10162000562000F00DF90A2001F006FA01A909A8D8
:1016300000F08CF904460146082301AA24A001F019
:1016400063FA002C41D100F0EFFC014607AA01A883
:1016500001F0E1F907A801F04FF901A800F024FA20
:101660000446002301461A461CA001F04DFA002C46
:101670002BD16B4603AA052101A800F0CFF904463F
:101680006846037803AA214616A001F03DFA002C13
:101690001BD12C46FFF7A4FF0A2001F0CDF9FFF77C
:1016A000A5FF01220821204600F0B8FC0A2001F025
:1016B000C3F901A909A800F049F9002805D10022C1
:1016C0000821204600F0AAFCE4E70BB030BD000082
:1016D000496E76656E746F727900000053656C65B3
:1016E0006374000052656164426C6F636B000000BC
:1016F000F8B505467D270021FF43084600F012FAA1
:101700001021022000F003FA7F21062000F00AFADF
:101710007F21072000F006FA002406E0281901794D
:10172000052000F0FFF9641CA4B26888A042F5D837
:101730001821082000F0F6F94221092000F0F2F902
:101740002978002000F0EEF9072000F04BF906465A
:101750004006F9D52878072813D15421082000F035
:10176000E1F94221092000F0DDF97D24A4010720E0
:1017700000F038F90646400603D4641E2404240C05
:10178000F5D10021082000F0CDF90021092000F05A
:10179000C9F90A2000F026F9002C09D0B107274E1C
:1017A00049D400281FD0410705D51726F64342E04B
:1017B0001D26F6433FE0C00713D01426F64304204D
:1017C00000F010F90746002406E0052000F00AF9B1
:1017D0002919641C0871A4B2BC42F6D3F8006880D1
:1017E00029E03E4627E028780026072823D1042058
:1017F00000F0F8F804460C2000F0F4F84007400F21
:1018000003D0E1000839081800E0E0006880002CEF
:1018100004D0FA2C04D9FA24002703E00124FBE7C2
:10182000002706E0052000F0DDF8E9197F1C0871AB
:10183000BFB2A742F6D33046F8BD0000FFFFFFFF5E
:1018400010B5044698210F2000F06CF99221142065
:1018500000F068F92021192000F064F903211A2012
:1018600000F060F9FF211B2000F05CF900211E2030
:1018700000F058F9562C57D11021032000F052F9EE
:1018800080210C2000F04EF98921282000F04AF92F
:101890000421292000F046F909212A2000F042F90C
:1018A0000A212B2000F03EF90021342000F03AF903
:1018B0000A210846FFF71EFE0021082000F032F939
:1018C0000021092000F02EF9B021022000F02AF9B1
:1018D00000212F2000F026F90021302000F022F90D
:1018E0000F21332000F01EF90221352000F01AF9F3
:1018F0007421372000F016F91221382000F012F977
:101900000721392000F00EF99C21362000F00AF959
:101910008121282000F006F900210B2000F002F9B7
:101920008921282000F0FEF8C021662000F0FAF896
:1019300003216C2000F0F6F801216D2000F0F2F890
:101940000921472000F0EEF8002010BD70B592B0DC
:101950000E4605466C467B212C2000F0E3F87B21E7
:101960002D2000F0DFF808212E2000F0DBF8882180
:10197000312000F0D7F8A921322000F0D3F800215F
:10198000102000F0CFF88021112000F0CBF80321C7
:10199000152000F0C7F82221162000F0C3F8072117
:1019A00068460170032141802621017101214171A6
:1019B000002181712046FFF79BFE040005D1684697
:1019C0004088502804D07B24E443204612B070BDE8
:1019D00068464079287001A9082230460231FEF796
:1019E0001FFEF2E770B509250446ED06002210211E
:1019F000284600F013FB6000401CC0B200F046F81F
:101A0000002000F043F8044601221021284600F08F
:101A100005FB142001F028F8204670BDF0B591B008
:101A20000F461D4616466C462421102000F07AF819
:101A3000EB21112000F076F80021152000F072F85B
:101A40000021162000F06EF807216846017003217E
:101A50004180122101712021417187712046FFF7D9
:101A600047FE04000FD168464088002809D0C0080E
:101A7000401EC2B201A92A7030460131FEF7D0FDE6
:101A800001E07B24E443204611B0F0BD05498A689B
:101A90009207FCD5C8608868C007FCD0C868C0B28F
:101AA000704700000030014030B591B005466C46EB
:101AB0002421102000F036F8EB21112000F032F83C
:101AC0000021152000F02EF80021162000F02AF841
:101AD0000721684601700A214180222101712521D8
:101AE000417108222946801DFEF79AFD2046FFF726
:101AF000FFFD002809D169464988002903D06946BD
:101B00000979002901D07B20C04311B030BD70B5E8
:101B10000D460446FFF766FF28430146204600F0C5
:101B200001F870BD70B509250E460446ED06002289
:101B30001021284600F072FA6006000EFFF7A6FF9B
:101B40003046FFF7A3FF01221021284600F066FA75
:101B5000142000F089FF70BDF7B516460F4600F05F
:101B60007DF90098FFF760FC00240EE0A0000099CA
:101B70003A5841180023022000F032F9050003D042
:101B800000F024F92846FEBD641CB442EED300F0F8
:101B90001DF90020FEBDF8B5044616462030027837
:101BA00020688068012A05D0022A03D0606A0121DA
:101BB00089044DE00201920F01D1C20045D5800198
:101BC0000127800F3A4682401A608A68002A14D0A2
:101BD000CB681A434B68DB001A430301FF332568C7
:101BE0008133EA5005012846FF3023680A698530B1
:101BF0001A50097D012904D009E00A88CB685205F2
:101C0000EAE721680A58FF2301331A430A50701D7E
:101C1000FEF767FD3179000208432946FF3122684B
:101C20008D315050701CFEF75CFD31780002084386
:101C30002946FF31226889315050FF3520688135AF
:101C40004159394341510020F8BD606A01214905DD
:101C5000084360620120F8BDF8B5040005D02546B0
:101C600020352878002802D004E00120F8BD204665
:101C700000F07AF82068016801221143016000F049
:101C8000D3F9012706467F0404E000F0CDF9801B5C
:101C90000A2811D820684068C007F6D0206801687B
:101CA00002229143016000F0BFF906460AE000F00D
:101CB000BBF9801B0A2805D9606A38436062052099
:101CC0002870D2E7206840688007F0D4217E802009
:101CD000012921680A683BD082430A60617E402066
:101CE000012921680A6835D082430A60A17E20203C
:101CF000012921680A682FD082430A60E07E102102
:101D000001282068026829D00A430260207F082148
:101D100001282068026823D08A430260617F042082
:101D2000012921680A681DD082430A60E168A06821
:101D3000626908432169114308436168491E0843E9
:101D40002168C86100206062012028700020F8BD71
:101D50000243C2E70243C8E70243CEE78A43D4E71F
:101D60000A43DAE70243E0E710B586B004461421DF
:101D70006846FEF7B4FC1349206888421FD1124818
:101D8000C269012149060A43C261C2690A4005923B
:101D9000426909120A4342614069084005900320E4
:101DA000C0020090022001900020029003200390C6
:101DB0000420049009206946C00600F063F806B0CC
:101DC00010BD00000064004000100240034801699B
:101DD0008022114301610020704700000020024072
:101DE000F0B51FB407461A480024017E15461E466A
:101DF000012907D0012101761648FFF753FB00287F
:101E000003D020E0022005B0F0BD012F02D0022F48
:101E100000D00427220128463146FEF713FA81B28A
:101E2000019862001018FFF711FB0A48FFF73AFB10
:101E300009490A69520852000A61002803D1641C4A
:101E4000E4B2BC42E6D3024900220A76DBE7000096
:101E5000C800002050C300000020024006490020B6
:101E60000A69120607D5054A4A60054A4A600969A7
:101E7000090600D501207047002002402301674574
:101E8000AB89EFCDF8B5002303240125B5E02E463C
:101E90009E40B44632407CD00E79B607B60F012E74
:101EA00001D0022E17D186682746B6465E00B7409D
:101EB00000967646BE43B646CF68009EB74076464B
:101EC0003743876046686746BE430F79FF06FF0FBA
:101ED0009F40374347600E79F643B6070ED0C66879
:101EE0002746B4465E00B646B7406646BE43B44693
:101EF0008F687646B74066463743C7600E79B607A7
:101F0000B60F022E14D1DE08B60036180096366AD7
:101F10005F07B446FE0E0F27B646B7406646BE437F
:101F2000B4460F697646B74066463743009E37622F
:101F300006682746B4465E00B646B7406646BE43CE
:101F40000F79B446BF07BF0F7646B74066463743A2
:101F500007604E68B603B60F4ED02B4FBE692E43B6
:101F6000BE61BE699F08F607F60F284EBF00BE1976
:101F70000096B6680F27B4469E07360FB646B740A0
:101F80006646BE430927FF06B446B84202D1002781
:101F90000BE031E01E4FB84201D1012705E01D4F93
:101FA000B84201D1022700E005277646B7406646D1
:101FB0003743009EB760184EB6684F689643FF02DD
:101FC00000D51643144FBE60FE684F689643BF02AB
:101FD00000D51643104FFE607E684F689643BF03DE
:101FE00000D516430C4F7E603E684F689643FF0352
:101FF00000D51643084A16605B1C0A681646DE4088
:1020000000D044E7F8BD000000100240000001408D
:10201000000400480008004800040140002A01D0E4
:102020008161704781627047014880687047000095
:102030001C0000200248816802788918816070477E
:102040001C00002010B506480168102211430160F1
:10205000032000F007F800F027F8002010BD000072
:102060000020024070B504460D4D7D202978C00047
:10207000FEF748FB01460B480068FEF743FB00F003
:1020800095FB002809D1042C07D200222146401ECE
:1020900000F024F800206C6070BD012070BD0000CD
:1020A0001C0000202800002008B50A488169012290
:1020B00011438161816911400091C26901040A43A1
:1020C000C261C069084000900348016810221143B2
:1020D000016008BD001002400000014010B500F092
:1020E00071FC10BDF8B50F4606005ED03C4D286867
:1020F000C007C00FB84209D22868400840003843E2
:1021000028602868C007C00FB8424ED13068354CEF
:1021100081070CD5400704D56068072109020843F0
:1021200060606068F0218843B1680843606030787F
:10213000C0072BD07068012810D0022810D00328C7
:1021400011D02168890700292FDA61688908890080
:1021500001436160FFF768FF009010E0216803E031
:1021600021688901EFE7616B8903ECE7FFF75CFF0A
:102170000099411A1C48814201D90320F8BD6068CA
:102180000C210840716889008842EFD12868C00797
:10219000C00FB8420BD92868400840003843286077
:1021A0002868C007C00FB84201D00120F8BD3078C0
:1021B000400706D56068072109028843F168084393
:1021C000606000F017F86168084A0906090F515C61
:1021D000C840074908600320FFF744FF0020F8BD0E
:1021E000002002400010024088130000842B0008E9
:1021F0002800002070B5154A51680C200B4603409A
:102200001348042B05D0134D082B03D00C2B00D101
:10221000284670BD8B02104C1B0FE45CD26A0E4B3B
:102220001207120F1033C9039A5C890F022901D0DB
:10223000032901D0002301E0002328460021FEF7F6
:1022400012F8214600F0A5FB70BD0000001002400E
:1022500000127A00006CDC02642B0008FEB504005A
:1022600070D02078F94EFA4DC00748D06868000752
:10227000800F01281FD068680007800F022804D152
:102280006868C003800F022815D06168012919D041
:1022900001208004002901D0052917D02968B14305
:1022A0002960296881432960606800281BD0FFF7F6
:1022B000BBFE074613E02868800320D5606800282D
:1022C000CED01CE0286830432860EDE72968014340
:1022D0002960F7E7FFF7A8FEC01B642870D82868BC
:1022E0008003F7D50BE0FFF79FFE074604E0FFF7FA
:1022F0009BFEC01B6428F1D828688003F7D420789F
:1023000080073FD568680007800F14D06868000711
:10231000800F022804D16868C003800F01280AD00A
:10232000E068002828681ED0012108432860FFF7D4
:102330007BFE07460CE0286880070CD5E068012882
:1023400000D108E080E1FFF76FFEC01B0228C5D86E
:1023500028688007F7D52868F82188432169C900D3
:10236000084328600EE0400840002860FFF75CFE4C
:10237000074604E0FFF758FEC01B0228AED82868C5
:102380008007F7D42078000723D5E0690028686A21
:102390000FD0012108436862FFF746FE074604E0BC
:1023A000FFF742FEC01B022898D8686A8007F7D55D
:1023B0000FE0400840006862FFF736FE074605E080
:1023C000C3E0FFF731FEC01B022887D8686A800788
:1023D000F7D4207804274007002861DA0020019014
:1023E000E869C00008D4E969B8060143E961E96910
:1023F000014001200091019096480168C90511D45F
:102400000168821511430160FFF70EFE009005E0A0
:10241000FFF70AFE0099401A642898D88D48006892
:10242000C005F5D5A06801280AD0002801D00528EC
:1024300011D0286A400840002862286AB84302E0A8
:10244000286A012108432862A068002812D0FFF7FB
:10245000EBFD00900AE0286A38432862F0E7FFF7B6
:10246000E3FD0099411A7C4881426ED8286A8007B2
:10247000F5D50DE0FFF7D8FD009006E0FFF7D4FD9D
:102480000099411A744881425FD8286A8007F5D4C0
:102490000198002804D0E969012000078143E9611F
:1024A0002078C00635D5606901280CD0401D686BC6
:1024B00024D038436863686B400840006863FFF7C6
:1024C000B3FD074622E0686B38436863686B0121FF
:1024D00008436863FFF7A8FD074604E0FFF7A4FD83
:1024E000C01B022831D8686B8007F7D5686BF821CC
:1024F0008843A169C900084368630AE0B843686378
:10250000F4E7FFF791FDC01B02281ED8686B800717
:10251000F7D42078800637D568680007800F032835
:1025200014D068680007800F022804D16868C003CF
:10253000800F03280AD0206A0028686B16D0304329
:102540006863FFF771FD06460CE062E0686B80038C
:102550001AD5206A012877D116E0FFF765FD801BA8
:10256000022856D8686B8003F7D50DE0B043686346
:10257000FFF75AFD064604E0FFF756FD801B0228D0
:1025800047D8686B8003F7D4606A002866D0696812
:102590000907890F022942D0012636060228286839
:1025A00005D0B0432860FFF73FFD044633E0B04359
:1025B0002860FFF739FD074604E0FFF735FDC01B33
:1025C000022826D828688001F7D4E86A216B000920
:1025D00000010843E862A16AE06A084369687B2257
:1025E000D203914308436860286830432860FFF7AE
:1025F0001BFD044604E0FFF717FD001B022808D866
:1026000028688001F7D529E0FFF70EFD001B02289E
:1026100001D90320FEBD28688001F5D41EE0012801
:10262000F8D06868E96A0322D203A36A02409A429A
:102630000AD10907226B090F914205D10F218904A4
:102640000840E16A884209D00120FEBD0000010077
:102650000010024000700040881300000020F4E7E2
:10266000F8B504000CD0606A002500280AD0256166
:10267000656126464036A562707F002808D00BE0D1
:102680000120F8BD6168C81FFD38F2D0E561F0E7B0
:102690003577204600F05CF80222727720680168E6
:1026A0004023994301600723E1681B02994201D945
:1026B000002001E0012000030F273F02B94202D0B1
:1026C000994200D0A562FF23616805331940212794
:1026D000A368BF023B40194323691340227D19437D
:1026E000D207D20F11430123A2695B021A401143A2
:1026F000E26938231A401143226A80231A401143A9
:10270000A26A9B011A40114322681160A169042248
:10271000090C1140626A10231A401143626B0823AE
:102720001A4011430F23E2681B021A401143012291
:10273000120310400143206841602068C1695210B3
:102740009143C1612566012070770020F8BD00002B
:1027500010B586B0044614216846FDF7C0FF114944
:10276000206888421CD11048826981140A43826122
:1027700082690A400592426949010A4342614069FF
:1027800008400590F02000900220019000210320D5
:1027900003900291049109206946C006FFF772FB7D
:1027A00006B010BD0030014000100240094910B5CC
:1027B000401E884201D9012010BD074C60610321F1
:1027C000081F00F0FFF80020A06107202061002012
:1027D00010BD0000FFFFFF0000E000E0FEE700008A
:1027E00010B50F480D4901600E4907224968416044
:1027F00000218160120402610322C160520542611E
:10280000017641768176C17601774177FFF724FA28
:10281000002801D0FEF706FE10BD00000064004055
:10282000380000200C00002030B587B01421684625
:10283000FDF755FF19484269012189050A434261A4
:1028400042690A400592426949110A43426142695C
:102850000A400592426949000A43426140690925DC
:102860000840ED060590002208212846FFF7D6FB18
:1028700008200090012000240190029469460394EE
:102880002846FFF7FFFA022000900194694602945F
:102890000348FFF7F7FA07B030BD00000010024010
:1028A0000004004810B511480F490160FF210531AF
:1028B000416000210322816012020161C260416116
:1028C000C16101220162520241628261816207227A
:1028D000C262016308214163FFF7C2FE002801D0F4
:1028E000FEF7A0FD10BD0000003001406000002098
:1028F000FEE770477047000010B588B00446FFF748
:102900006FFF0B4806AB006800900120019000208B
:102910000290039008200490224669460548FFF77C
:102920003AF9002801D0FEF77DFD08B010BD000087
:102930000C0000203800002010B5FFF77BFB10BD15
:1029400010B592B034216846FDF7C9FE00240F94FB
:10295000022000900D9401200E9403901020099401
:10296000049010946846FFF779FC002801D072B6F5
:10297000FEE707200D900E940F94002110940DA8EF
:10298000FFF7B0FB002801D072B6FEE712B010BD11
:102990007047F8B5040C8BB2264682B25E430D0C2C
:1029A0001046370C584336048019002179411646E9
:1029B0006E43370C36048019794126466E438919D7
:1029C000F8BD00008307FF22DB0E9A408907090E3D
:1029D0009940002808DB830809489B001B181868E9
:1029E00090430843186070470007000F08388308B9
:1029F00004489B001B18D86990430843D86170476E
:102A000000E400E000ED00E030380A2801D20120A7
:102A100070470020704710B50023C4182479D4549F
:102A20005B1C042BF9DB080E1071080C5071080AAE
:102A30009071D17110BD0000094949884843094986
:102A4000486108690122104308610869C003FCD588
:102A50000869400840000861002088617047000054
:102A60000000002000E000E0002103E000BF00BF04
:102A700000BF491C8142F9D3704710B58A68002A0B
:102A800002DCFEF7B9F810BD521E8A604A68C0B277
:102A9000531C4B60107010BD02680B689A4203D142
:102AA00040684968884201D0012070470020704783
:102AB000034B04491A680A605B684B600CC070479E
:102AC000007C00080C0000201CB5FFF7BBFAFFF7E4
:102AD00037FFFFF7A9FEFFF783FEFFF7E3FE684627
:102AE000FFF7E6FF064CFEF787FD05490548FFF7AF
:102AF000D3FF0128F7D103CC083C00F027F8F2E718
:102B0000140000200C00002070B516460C460A4642
:102B100001461D4608A0FDF727FC002C06D007E063
:102B2000315D07A0FDF720FC641CE4B2AC42F7D392
:102B300005A0FDF719FC70BD25733A2025645F00E0
:102B400020253032580000000A0000001CB5019119
:102B50000090022269460248FEF7FEFF1CBD0000FD
:102B6000007C000802030405060708090A0B0C0D87
:102B70000E0F10100102030405060708090A0B0CCA
:102B80000D0E0F1000000000000000000102030401
:102B90000607080930313233343536373839414287
:102BA00043444546403058003031323334353637AF
:102BB000383961626364656640307800040000085B
:102BC000000000000000000200010000103A7474D0
:102BD000003A7474003A747400000000FC2B000882
:102BE000000000203800000004010008342C000818
:102BF000380000201008000020010008000000003C
:102C0000FFFFFFFFFFFF0000D100000001000000F8
:102C100000000000000000000100000004000000AF
:102C20000000000000127A00000000000000000018
:042C300000000000A0
:04000005080000C12E
:00000001FF
