:020000040800F2
:10000000E0050020550200085D0200085F020008BC
:100010006102000863020008650200080000000099
:100020000000000000000000000000009D0100082A
:100030006902000800000000F10100082D1100080D
:100040006F0200086F0200086F0200086F020008CC
:100050006F0200086F020008950400086F02000894
:10006000C5040008F5040008090500086F0200082F
:100070006F0200086F0200086F0200086F0200089C
:100080006F0200086F0200086F0200086F0200088C
:100090006F0200086F0200086F0200086F0200087C
:1000A0006F0200086F0200086F0200086F0200086C
:1000B000ED120008391300086F0200086F020008F3
:1000C0006F0200086F0200086F0200086F0200084C
:1000D0006F020008511800084D1900086D1900083A
:1000E0006F0200086F0200086F0200086F0200082C
:1000F0006F0200086F0200086F0200086F0200081C
:100100006F0200086F0200086F0200086F0200080B
:100110006F0200086F020008891300086F020008D0
:100120006F0200086F0200086F0200086F020008EB
:100130006F0200086F0200086F0200086F020008DB
:100140006F0200086F0200086F0200086F020008CB
:100150006F0200086F0200086F0200086F020008BB
:100160006F0200086F0200086F0200086F020008AB
:100170006F0200086F0200086F0200086F0200089B
:100180006F0200086F020008DFF80CD000F074F86E
:1001900000480047F91D0008E00500202A4B1968B7
:1001A0000868B0E8F04F80F30988BFF36F8F4FF015
:1001B000000080F3118870470000000006480068C6
:1001C000006880F3088862B661B6BFF34F8FBFF353
:1001D0006F8F00DF00BF00BF08ED00E0DFF80C000C
:1001E000016841F470010160704700BF88ED00E0D4
:1001F000EFF30980BFF36F8F134B1A681EF0100FD7
:1002000008BF20ED108A20E9F04F106008B44FF0CD
:10021000500080F31188BFF34F8FBFF36F8F01F051
:10022000A3FE4FF0000080F3118808BC196808682D
:10023000B0E8F04F1EF0100F08BFB0EC108A80F34A
:100240000988BFF36F8F704744000020EFF30580EB
:10025000704700000648804706480047FEE7FEE773
:10026000FEE7FEE7FEE7FEE7FEE7FEE7FEE7FEE766
:100270006111000889010008064C074D06E0E0689E
:1002800040F0010394E8070098471034AC42F6D3DD
:10029000FFF77EFF54290008742900081EE00021A2
:1002A0004FF0E0221161104909684FF47A72B1FBF6
:1002B000F2F1B1FBF2F14FF0E022516100219161C6
:1002C0000521116100BF4FF0E021096901F480317F
:1002D0000029F8D000214FF0E0221161011EA0F1A9
:1002E0000100DCD1704700009000002000B589B00B
:1002F0000121084600F010FE0121084600F0FCFD37
:100300000320079002208DF8200003208DF82100A3
:1003100001208DF822008DF8230007A9274800F05E
:100320000FF901220021254800F052F9012211465F
:10033000224800F04DF94FF4A56005900020ADF87B
:100340001000ADF81200ADF8180004A94FF080407D
:1003500001F03CFA0A231A460321580701F03FF93D
:1003600001A801F0A9F90A20ADF80C0001A9400785
:1003700001F06BF901221146900701F0A6F94FF444
:10038000407000F079FA1C208DF8000002208DF8F2
:10039000010000208DF8020001208DF8030068465E
:1003A00000F02EFA00214FF0804001F0E0F9012129
:1003B000880701F008F909B000BD00000000024004
:1003C00000B589B00121022000F0A6FD01210846F8
:1003D00000F092FDC020079002208DF8200003203D
:1003E0008DF8210001208DF822008DF8230007A947
:1003F000264800F0A5F802220621244800F0E8F87B
:1004000002220721214800F0E3F84FF4A56005908F
:100410000020ADF81000ADF81200ADF8180004A9E6
:100420001B4801F0D3F900231A460321184801F0B4
:10043000D6F801A801F040F90A20ADF80C0001A996
:10044000134801F002F901221146114801F03DF96B
:100450004FF4407000F010FA1D208DF800000320CA
:100460008DF8010000208DF8020001208DF80300B6
:10047000684600F0C5F90021054801F078F901212E
:10048000034801F0A0F809B000BD000000000240E0
:100490000004004010B5012000F046F801280CD1FE
:1004A0000121064800F0B7F820B94FF40071044864
:1004B00000F0BAF8012000F031F810BD0000024051
:1004C0000014024010B5042000F02EF801280CD1D1
:1004D0000421064800F09FF820B94FF480610448D9
:1004E00000F0A2F8042000F019F810BD001002403E
:1004F0000014024010B5042000F016F8012802D1C3
:10050000042000F00BF810BD10B5042000F00CF82A
:10051000012802D1042000F001F810BD0149086053
:1005200070470000143C014001460020034A126855
:100530000A400AB1012000E000207047143C01404D
:10054000F0B50A4600210023002400BF3DE001254C
:1005500005FA01F3156805EA03049C4234D10568E5
:100560004F000326BE40B543056015794E00B540E7
:100570000668354305601579012D02D01579022DE5
:1005800016D185684F000326BE40B5438560557976
:100590004E00B540866835438560456801268E402B
:1005A000B5434560456896798E40B6B2354345609F
:1005B000C5684F000326BE40B543C560D5794E00DF
:1005C000B540C6683543C560491C1029BFD3F0BD8E
:1005D000F0B5002300244D07ED0E02FA05F3CE100E
:1005E00000F1200555F826504E07F70E0F26BE40A5
:1005F000B543CF1000F1200646F82750CE1000F189
:10060000200555F8265045EA0304CE1000F12005D8
:1006100045F82640F0BD0246002013690B400BB19F
:10062000012000E00020704742694A404261704763
:100630001CB504468DF804404FF400700090012072
:100640008DF8060000208DF8070003208DF80500C6
:1006500069460248FFF774FF1CBD00000004024019
:1006600010B50120FFF7E4FF01200B4908600B499A
:10067000C1F8A4020520FFF711FE00200649091D5C
:1006800008600520FFF70AFE00200449C1F8A00217
:100690000520FFF703FE10BDA082404200804042CB
:1006A00010B50120FFF7C4FF00200B4908600B497B
:1006B000C1F8A4020520FFF7F1FD012006490860FA
:1006C0000520FFF7EBFD01200449C1F8A402052035
:1006D000FFF7E4FD10BD0000A082404200804042D0
:1006E00010B500240020FFF7A3FF0120094908608E
:1006F0000520FFF7D3FD0848D0F8240208B90124EB
:1007000000E000240020034908600520FFF7C6FD33
:10071000204610BDA0824042008040421CB501210D
:10072000022000F0E9FB0121082000F0E5FBC020D9
:10073000009001208DF8040000208DF806008DF84F
:10074000070003208DF8050069460748FFF7F8FE0B
:100750000320009069460548FFF7F2FE00F020F8FC
:1007600000F042F81CBD000000040240000C0240F2
:1007700000200349086001200249C1F89C0270472B
:1007800098824042008040420120034908600020D6
:100790000249C1F89C027047988240420080404262
:1007A0000020034908600349C1F89C02704700001B
:1007B00098824042008040420120034908600020A6
:1007C0000249C1F884027047808241420080414260
:1007D00000200349086001200249C1F884027047E3
:1007E0008082414200804142002003490860034961
:1007F000C1F884027047000080824142008041427B
:1008000070B5002100230F22C4781CB3174C246854
:1008100004F4E064C4F5E064C4F30721C1F1040406
:10082000E3B20A4144789C40E1B284781440214309
:100830000C07210E0E4C05786155047804F01F0555
:100840000124AC4005786D11AD0005F1E025C5F837
:10085000004109E0047804F01F050124AC40054D77
:100860000678761145F8264070BD00000CED00E0DA
:1008700000E400E080E100E002490143024A116027
:10088000704700000000FA050CED00E070B5002490
:1008900018E004F1B000002100F02FF90021084613
:1008A00000F02BF90021102000F027F9002505E0C9
:1008B0000121002000F021F9681CC5B2802DF7DB72
:1008C000601CC4B2082CE4DB70BD00001CB5012123
:1008D000022000F011FB01208DF8040000020090BE
:1008E00001208DF8060000208DF8070003208DF808
:1008F000050069463C48FFF723FE0120FFF798FEFC
:1009000001203A4908603A49C1F8A4020021AE200A
:1009100000F0F3F80021084600F0EFF80021102065
:1009200000F0EBF80021402000F0E7F80021B020B3
:1009300000F0E3F80021812000F0DFF80021FF2023
:1009400000F0DBF80021A12000F0D7F80021A6205C
:1009500000F0D3F80021A82000F0CFF800213F20BC
:1009600000F0CBF80021C82000F0C7F80021D32008
:1009700000F0C3F80021084600F0BFF80021D520A0
:1009800000F0BBF80021802000F0B7F80021D8204B
:1009900000F0B3F80021052000F0AFF80021D920C5
:1009A00000F0ABF80021F12000F0A7F80021DA20D8
:1009B00000F0A3F80021122000F09FF80021DB20B6
:1009C00000F09BF80021302000F097F800218D20E6
:1009D00000F093F80021142000F08FF80021AF20E0
:1009E00000F08BF81CBD000000040240A0824042D1
:1009F0000080404270B504460D4605F1B00000216C
:100A000000F07BF8102141EA1410002100F075F885
:100A100004F00F00002100F070F870BD2DE9F047E0
:100A200007460E469046994600250024A8F120006E
:100A3000C5B27F2F02DD0027B01CC6B2B9F1100F7E
:100A400024D131463846FFF7D5FF002408E004EBF7
:100A50000511194A505C012100F04FF8601CC4B226
:100A6000082CF4DB701CC1B23846FFF7C3FF00242A
:100A700009E004EB051108310F4A505C012100F038
:100A80003CF8601CC4B2082CF3DB12E03146384657
:100A9000FFF7B0FF00240AE005EB4501074A02EB2F
:100AA0004101085D012100F028F8601CC4B2062C49
:100AB000F2DBBDE8F0870000642300083C21000859
:100AC0002DE9F04104460F461546984600260FE0F2
:100AD000AA5D434639462046FFF7A0FF04F108000F
:100AE000C4B2782C02DD0024B81CC7B2701CC6B298
:100AF000A85D0028ECD1BDE8F08170B504460D4634
:100B00001DB1E0B201F082F802E0E0B201F068F855
:100B100070BDF0EE401A31EEE00A80ED030A90ED70
:100B2000050A90ED032A30EE020A80ED050A90EDE9
:100B3000030A90ED042A30EE420A80ED060A90ED99
:100B4000030A90ED002A20EE020A90ED052AD0ED6E
:100B5000012A02EE220A90ED022A01EE020A80ED3D
:100B6000070A90ED070A90ED082AB4EEC20AF1EEEA
:100B700010FA04DD90ED080A80ED070A0CE090ED14
:100B8000070A90ED092AB4EEC20AF1EE10FA03D278
:100B900090ED090A80ED070A90ED030A80ED040A42
:100BA00090ED070A7047000080ED000AC0ED010AD1
:100BB00080ED021ADFED0E1AC0ED031ADFED0C1AFC
:100BC000C0ED041ADFED0A1AC0ED051ADFED081AB0
:100BD000C0ED061ADFED061AC0ED071ADFED051AA3
:100BE000C0ED081ADFED041AC0ED091A70470000C5
:100BF000000000000000FA450000FAC5B0EE401AFF
:100C000031EE200AD0ED031A30EE610A80ED040ABD
:100C100090ED040ADFED341A20EE210A80ED040A7B
:100C200090ED060ADFED311A20EE210A80ED060A6A
:100C300090ED040AD0ED061A30EE210A80ED050A87
:100C400090ED050A80ED060A90ED070AD0ED051A31
:100C500030EE210A80ED070A90ED070ADFED241A35
:100C6000B4EEE10AF1EE10FA04DD9FED210A80ED09
:100C7000070A0CE090ED070ADFED1E1AB4EEE10A58
:100C8000F1EE10FA03D29FED1B0A80ED070A90EDFA
:100C9000050AD0ED001A20EE210AD0ED071A90EDDA
:100CA000012A01EE820A80ED090A90ED090AD0EDD1
:100CB0000A1AB4EEE10AF1EE10FA04DD90ED0A0A28
:100CC00080ED090A0CE090ED090AD0ED0B1AB4EEA4
:100CD000E10AF1EE10FA03D290ED0B0A80ED090A59
:100CE00090ED090A704700009A99193E9A99593F68
:100CF00000401C4600401CC6C0ED000A80ED011AF1
:100D0000C0ED021A80ED030A9FED102A80ED042A3F
:100D10009FED0E2A80ED052A9FED0C2A80ED062A14
:100D20009FED0A2A80ED072A9FED082A80ED082A08
:100D30009FED062A80ED092A9FED052A80ED0A2AFB
:100D40009FED042A80ED0B2A704700000000000090
:100D50000000FA450000FAC500B58BB00121202043
:100D600000F0CAF802208DF8280000208DF82A0033
:100D70008DF82B004FF48070099003208DF8290026
:100D800009A91C48FFF7DCFB092208211948FFF7D5
:100D90001FFC0121802000F0BFF80020ADF82000EA
:100DA000ADF81A0041F63F7007900020ADF818002A
:100DB00006A9114800F00AFD6020ADF804000120EA
:100DC000ADF80600642003900020ADF8100001A9E2
:100DD000094800F083FC0821074800F0BDFC012110
:100DE000054800F0E1FB0121034800F0ECFB0BB0EB
:100DF00000BD000000140240001C004000B58BB094
:100E00000121202000F078F802208DF82800002031
:100E10008DF82A008DF82B004FF400700990032004
:100E20008DF8290009A91C48FFF78AFB0922114601
:100E30001948FFF7CDFB0121080200F06DF80020F2
:100E4000ADF82000ADF81A0041F63F700790002081
:100E5000ADF8180006A9114800F0B8FC6020ADF804
:100E600004000120ADF80600642003900020ADF8D6
:100E7000100001A9094800F031FC0821074800F0E2
:100E80006BFC0121054800F08FFB0121034800F0B5
:100E90009AFB0BB000BD000000140240002000408F
:100EA00010B52DED028BB0EE408AB5EEC08AF1EEA2
:100EB00010FA04DDFFF75CFCFFF77EFC07E0FFF7AC
:100EC00063FCFFF785FCB1EE480AB0EE408ABCEE49
:100ED000C80A10EE101A064800F047FCBCEEC80A1B
:100EE00010EE101A034800F040FCBDEC028B10BD60
:100EF000001C00400020004029B1064A126802434D
:100F0000044B1A6004E0034A12688243014B1A60E2
:100F1000704700003038024029B1064A1268024387
:100F2000044B1A6004E0034A12688243014B1A60C2
:100F3000704700004038024029B1064A1268024357
:100F4000044B1A6004E0034A12688243014B1A60A2
:100F50007047000044380240F0B500210022002410
:100F6000022500260223324F3F6807F00C0121B111
:100F7000042905D0082937D105E02E4F076036E057
:100F80002D4F076033E02A4F3F1F3F68C7F380565D
:100F9000274F3F1F3F6807F03F036EB1264FB7FB57
:100FA000F3F7DFF88CC0ACF1040CDCF800C0CCF334
:100FB000881C07FB0CF40CE01E4FB7FBF3F7DFF8BF
:100FC00070C0ACF1040CDCF800C0CCF3881C07FB4B
:100FD0000CF4174F3F1F3F68C7F301477F1C7D008C
:100FE000B4FBF5F7076002E0124F076000BF00BFD7
:100FF0000F4F3F6807F0F0010909104F7A5C07684E
:10100000D74047600A4F3F6807F4E051890A0B4F09
:101010007A5C4768D7408760054F3F6807F46041B6
:10102000490B064F7A5C4768D740C760F0BD0000A7
:10103000083802400024F40000127A0080000020EA
:101040000CB50020019000903448006840F48030D6
:101050003249086000BF3148006800F40030009059
:101060000198401C0190009818B90198B0F5A04F64
:10107000F1D12A48006800F4003010B1012000903E
:1010800001E0002000900098012846D1234840301C
:10109000006840F0805021494031086020480068D5
:1010A00040F440401E4908601C48083000681B4955
:1010B000083108600846006840F4004008600846AF
:1010C000006840F4A05008601648091F0860081F17
:1010D000006840F08070091F086000BF0F4800687A
:1010E00000F000700028F9D040F205700E49086049
:1010F0000A480830006820F00300084908310860F9
:101100000846006840F00200086000BF034808304D
:10111000006800F00C000828F8D10CBD003802402F
:101120000070004008544007003C024010B500BF6A
:10113000502080F31188BFF34F8FBFF36F8F00BF34
:1011400000F058FF18B14FF080500449086000BF0C
:10115000002080F3118800BF10BD000004ED00E006
:1011600010B51548006840F4700013490860134832
:10117000006840F001001149086000200F49083163
:1011800008600E4800680E4908400C4908600D4888
:10119000091D0860081F006820F48020091F0860EE
:1011A000002006490C310860FFF74AFF4FF000604D
:1011B00001498039086010BD88ED00E00038024028
:1011C000FFFFF6FE10300024F0B50C461546002156
:1011D0000022068C4FF6FE773E400684018B028C7F
:1011E0004FF60C7631407E1C06EA03162E4331433F
:1011F0004FF6F576324044F0010632430183028413
:10120000F0BDF0B50C461546002100220026078CE3
:101210004FF6EF7C07EA0C070784018B028C4FF630
:10122000FF7707EA041640F6FF4739404FF6FF778D
:1012300007EA033739434FF6FF7707EA05273943B3
:101240004FF65F773A4046F010073A430183028435
:10125000F0BDF0B50C461546002100220026078C93
:101260004FF6FF6C07EA0C070784818B028C4FF660
:10127000FF7707EA04264FF60C7739404FF6FF77E1
:1012800007EA03172F4339434FF2FF573A4046F41A
:1012900080773A4381830284F0BDF0B50C46154651
:1012A000002100220026078C4EF6FF7C07EA0C077F
:1012B0000784818B028C4FF6FF7707EA043640F6ED
:1012C000FF4739404FF6FF7707EA052739434FF6C6
:1012D000FF7707EA0337394345F6FF773A4046F48C
:1012E00080573A4381830284F0BD000010B501218C
:1012F000880700F099F9012817D180070088C0F30A
:10130000001030B90B480088401C00B20949088021
:101310000BE04FF080400088C0F3001028B1054872
:101320000088401E00B2034908800121880700F0B0
:1013300047F910BD0000002010B50121104800F051
:1013400073F9012816D10E480088C0F3001030B997
:101350000C480088401C00B20A4908800AE008488E
:101360000088C0F3001028B106480088401E00B273
:10137000044908800121024800F022F910BD000054
:10138000000400400200002010B50121624800F076
:101390004BF9012870D16148B0F900006049B1F9FA
:1013A000001088420AD14FF0804000F039F95D49C1
:1013B0000988401A00B25C49088040E05748B0F9FB
:1013C00000005749B1F90010884218DD4FF0804005
:1013D00000F026F95349B1F90010C1F5A5610844A0
:1013E0004E49B1F900104E4AB2F90020891A4FF463
:1013F000A56202FB010000B24B4908801FE047488C
:10140000B0F900004649B1F90010884217DA4FF0F0
:10141000804000F005F9A0F5A5604249B1F900103F
:10142000401A3F49B1F900103C4AB2F90020891A2C
:101430004FF4A56202FB110000B23B4908804FF057
:10144000804000F0EDF8374908803448B0F90000DA
:10145000334908803548B0F900003549B1F900102A
:1014600088420AD1334800F0DBF833490988401A32
:1014700000B2324908803FE04CE02C48B0F900004F
:101480002B49B1F90010884217DD2A4800F0C8F84E
:101490002949B1F90010C1F5A56101442348B0F90B
:1014A0000000234AB2F90020801A4FF4A56202FB23
:1014B000001000B2214908801EE01C48B0F900006D
:1014C0001B49B1F90010884216DA1A4800F0A8F852
:1014D000A0F5A5601849B1F90010411A1448B0F9F7
:1014E0000000124AB2F90020801A4FF4A56202FBF4
:1014F000101000B2114908800E4800F091F80E4912
:1015000008800A48B0F90000094908800121024812
:1015100000F056F810BD0000001000400000002050
:1015200004000020080000200C0000200200002021
:1015300006000020000400400A0000200E000020E9
:101540001FB501211020FFF7E7FC0020ADF80C00CB
:10155000ADF8060040F24730029040F2E730ADF8B7
:10156000040001A90F4800F031F9012211460D488D
:1015700000F0ABF84FF44070FFF77EF936208DF89D
:10158000000001208DF8030004208DF801000020E8
:101590008DF802006846FFF733F90121014800F099
:1015A00012F81FBD0010004021B1028842F08002F5
:1015B000028004E002884FF67F731A400280704771
:1015C000CA430282704721B1028842F001020280C0
:1015D00004E002884FF6FE731A4002807047F0B5AF
:1015E0000C4615461E460021002200230189028B6D
:1015F000038C4FF6F877394021434FF6FC473A40C9
:1016000040F201173A434FF6DD773B404FF6FF7744
:1016100007EA06172F433B43018102830384F0BD91
:101620000146486A00B2704730B5024600200023E8
:101630000024158A05EA0103958905EA010413B11E
:101640000CB1012000E0002030BD70B505460C460D
:10165000208850B92389A28861882846FFF7B4FD05
:10166000E188284600F085F825E0208804280AD182
:101670002389A28861882846FFF7C3FDE1882846B0
:1016800000F080F817E0208808280AD12389A28872
:1016900061882846FFF7DDFDE188284600F07FF8E5
:1016A00009E02389A28861882846FFF7F6FDE188D2
:1016B000284600F07DF870BD0021018041800121A5
:1016C00081800021C180018170471AB183890B4359
:1016D000838102E083898B438381704770B5002446
:1016E00000220023058C4FF6FE7635400584028CDF
:1016F0008388048B4FF68F752C40B51E2C400D88C7
:101700002C43751E2A408D892A434D882A43104D4B
:10171000A84202D00F4DA84213D14FF6F7752A40C8
:10172000CD892A434FF6FB752A408D882A434FF610
:10173000FF652B404FF6FF552B400D8A2B434D8AFA
:101740002B43838004838D684563028470BD000051
:1017500000000140000401400A460021018B4FF6C1
:10176000F773194011430183704741637047416229
:101770007047028B4FF6F3731A400283028B0A43C1
:1017800002837047028B4FF2FF331A400283028BB1
:101790004FF6FF7303EA01231A4302837047828BDB
:1017A0004FF6F3731A408283828B0A438283704719
:1017B000828B4FF2FF331A408283828B4FF6FF7386
:1017C00003EA01231A438283704700000022028843
:1017D000184B98420ED0184B98420BD0B0F1804F66
:1017E00008D0164B984205D0154B984202D0154BA5
:1017F000984204D14FF68F731A404B881A43124B0C
:10180000984207D0114B984204D04FF6FF431A403C
:101810000B891A4302804B68C3620B880385054B12
:10182000984202D0044B984201D18B7A038601235F
:101830008382704700000140000401400004004022
:1018400000080040000C0040001000400014004060
:1018500010B540F225510C4800F0C5F8012811D10F
:10186000094800F079F9094908700846007800F045
:10187000F3F90648007800F057FA40F22551024883
:1018800000F096F810BD000000100140400000205C
:1018900000B587B001210846FFF72EFB02208DF826
:1018A000180000208DF81A004FF4C0600590002049
:1018B0008DF81B0003208DF8190005A92148FEF7BB
:1018C0003FFE01211020FFF737FB072209211D48A9
:1018D000FEF77EFE07220A211A48FEF779FE4FF432
:1018E000165001900020ADF810000C20ADF80E004D
:1018F0000020ADF80C00ADF80A00ADF8080001A911
:10190000114800F0BFF8012240F225510E4800F0C6
:1019100094F84FF44070FEF7AFFF25208DF80000DB
:1019200001208DF803008DF8010000208DF80200E1
:101930006846FEF765FF0121034800F048F807B04C
:1019400000BD0000000002400010014010B540F250
:101950002551054800F047F8012804D140F22551EF
:10196000014800F025F810BD0044004010B540F2D9
:1019700025510E4800F037F8012815D10B4800F02A
:10198000EBF8C4B2552C03D10521084800F0E9F862
:10199000FF2C03D1FF21054800F0E3F840F2255168
:1019A000024800F005F800BF10BD000000480040EC
:1019B00010B50022002340F66A14A14200D100BFF6
:1019C0000A1201249440A3B2DC43048010BD21B16B
:1019D000828942F40052828104E082894DF6FF73CD
:1019E0001A408281704770B502460024002300250A
:1019F000002040F66A16B14200D100BFC1F3421583
:101A000001F01F03012606FA03F3012D02D1968986
:101A1000334006E0022D02D1168A334001E0968A57
:101A200033400C12012606FA04F41688344013B130
:101A30000CB1012000E0002070BDF0B50346002489
:101A400000260025002040F66A17B94200D100BFE9
:101A50001846C1F3421401F01F06012707FA06F5E4
:101A6000012C01D10C3004E0022C01D1103000E037
:101A700014301AB107682F43076002E00768AF43CC
:101A80000760F0BD2DE9FF4705460E460024A1463C
:101A900000BFA046B08900B100BF2C8A24F4405496
:101AA000F08804432C82AC8941F20C608443B088F6
:101AB00031890843718908430443AC81AC8A24F41A
:101AC0004074B0890443AC826846FFF745FA204869
:101AD000854202D01F48854202D1DDF80C9001E01A
:101AE000DDF80890A88900F4004040B109EBC90076
:101AF00000EB091031684900B0FBF1F707E009EB92
:101B0000C90000EB091031688900B0FBF1F76420CF
:101B1000B7FBF0F004012009642101FB1078A889CB
:101B200000F4004040B1322000EBC800B0FBF1F0FF
:101B300000F00700044308E0322000EB08106421A5
:101B4000B0FBF1F000F00F0004432C81BDE8FF87EB
:101B5000001001400014014001468888C0F30800CD
:101B60007047C1F3080282807047000070B50546D7
:101B700000240120FEF75CFD00201749086017498A
:101B8000C1F8A4020520FEF789FB00BF20E0C4F1E4
:101B9000070101208840284020B101200E49091D7D
:101BA000086003E000200C49091D08600520FEF7CD
:101BB00075FB0120084908600520FEF76FFB002037
:101BC0000649C1F8A0020520FEF768FB601CC4B2FC
:101BD000082CDCDB70BD0000A08240420080404247
:101BE00010B50446FEF73CFD7820FFF7BFFFFEF777
:101BF00077FD0020FFF7BAFFFEF772FD2046FFF7E2
:101C0000B5FFFEF76DFDFEF74BFD10BD10B50446A8
:101C1000FEF726FD7820FFF7A9FFFEF761FD4020C3
:101C2000FFF7A4FFFEF75CFD2046FFF79FFFFEF7DE
:101C300057FDFEF735FD10BD02E008C8121F08C1B0
:101C4000002AFAD170477047002001E001C1121F3D
:101C5000002AFBD17047000030B500222C4B1B78C6
:101C60005BB9552852D12B4B2B4C247818550123A6
:101C7000274C2370284C237048E0254B1B78012B00
:101C80000BD1532842D1234B234C247818550223DF
:101C90001F4C2370204C237038E01D4B1B78022B07
:101CA00034D11D4B1C781B785B1C1B4D2B70194BC2
:101CB00018552B461B780B2B28D1002105E0154B1E
:101CC0005B5C1344DAB24B1CD9B20A29F7DB114B27
:101CD0009B7A934215D10F4B1B790E4C647943EAE2
:101CE00004231BB200EE103AF8EEC00A9FED0B1A67
:101CF00080EE810ADFED0A0A20EE200A094B83ED0F
:101D0000000A0023024C2370034C237030BD0000F6
:101D100028000020A4000020290000200000004727
:101D2000000034433000002030B500222C4B1B78DB
:101D30005BB9552852D12B4B2B4C247818550123D5
:101D4000274C2370284C237048E0254B1B78012B2F
:101D50000BD1522842D1234B234C2478185502230F
:101D60001F4C2370204C237038E01D4B1B78022B36
:101D700034D11D4B1C781B785B1C1B4D2B70194BF1
:101D800018552B461B780B2B28D1002105E0154B4D
:101D90005B5C1344DAB24B1CD9B20A29F7DB114B56
:101DA0009B7A934215D10F4B1B790E4C647943EA11
:101DB00004231BB200EE103AF8EEC00A9FED0B1A96
:101DC00080EE810ADFED0A0A20EE200A094B83ED3E
:101DD000000A0023024C2370034C237030BD000026
:101DE00038000020AF00002039000020000000472C
:101DF000000034433C000020FEF768FDFEF746FD7E
:101E0000FEF78CFCFFF744FDFEF7A6FFFEF7F6FF9A
:101E1000FEF76CFAFEF7D4FAFFF792FB9FED261A55
:101E2000DFED260A9FED260A2648FEF7BDFEDFED10
:101E3000231ABCEE001AFBEE090A9FED200A224885
:101E4000FEF75AFF0C2321A202210120FEF738FEE3
:101E500030E02048B0F9000000EE100AF8EEC00AA9
:101E60001D48B0F9000000EE100AB8EEC00A16488E
:101E7000FEF7C4FE194880ED000A194890ED001ADB
:101E80001848D0ED000A184890ED000A0D48FEF7FA
:101E900040FE164880ED000A90ED000A0F48D0ED94
:101EA000000A30EE200A124880ED000A90ED000A88
:101EB000FEF7F6FFCDE7000000C007C400000000F9
:101EC0000000FC43BC000020E40000205069746363
:101ED000683A00000E0000200C00002014000020D2
:101EE0003C000020300000202400002018000020CA
:101EF000100000200A490968096809B9012100E0B9
:101F0000002121B14FF0FF31064A116006E004497B
:101F10000968C968C868034A4168116070470000D1
:101F2000480000207400002001460A69D1E9013010
:101F30009860D1E9010358605068884201D18868EF
:101F40005060002008611068401E106010687047E3
:101F500042684A6093688B60936859609160086139
:101F600003685B1C036070471D48006818B10120BE
:101F70001C49086032E000201A4908601A480068CD
:101F8000B0FA80F0C0F11F0101EB8100174A52F84E
:101F9000200008B1012000E0002050B900BF50200F
:101FA00080F31188BFF34F8FBFF36F8F00BF00BF67
:101FB000FEE701EB81020D4B03EB820042685268A1
:101FC000426000F108024368934202D142685268BD
:101FD00042604268D268064B1A6000BF704700003A
:101FE0007C000020680000205C000020140100201C
:101FF000440000202DE9F0414FF0000844480068FB
:10200000002877D143480068451C4248056015BB4D
:1020100041480068006808B9012000E0002050B97C
:1020200000BF502080F31188BFF34F8FBFF36F8F35
:1020300000BF00BFFEE738480768384800683649E7
:1020400008603648076036480068401C344908601C
:10205000FFF750FF00BF3348006885423CD300BF04
:102060002D480068006808B9012000E0002020B178
:102070004FF0FF302B4908602DE027480068C0680A
:10208000C4686668B54202D22648066023E0201D77
:10209000FFF74AFFA06A18B104F11800FFF744FFE8
:1020A00094F82C10012088401F49096808431E49F4
:1020B0000860E16A01EB81011C4A02EB8100211DED
:1020C000FFF746FF1A49E06A0968C96A8842C7D320
:1020D0004FF00108C4E700BF15480068C06A00EB74
:1020E0008000124951F82000012801D94FF0010861
:1020F00005E0FFE70F480068401C0E4908600E48E5
:10210000006808B14FF001084046BDE8F0810000CA
:102110007C00002058000020480000204C000020D7
:102120006C000020740000205C00002014010020DE
:10213000440000206400002068000020000000002F
:1021400000000000002F000000000700070000143E
:102150007F147F1400242A7F2A120062640813234C
:1021600000364955225000000503000000001C22E3
:102170004100000041221C000014083E0814000821
:10218000083E0808000000A06000000808080808D1
:10219000000060600000002010080402003E514969
:1021A000453E0000427F4000004261514946002107
:1021B00041454B31001814127F1000274545453921
:1021C000003C4A494930000171090503003649497C
:1021D000493600064949291E000036360000000035
:1021E0005636000000081422410000141414141480
:1021F0000000412214080002015109060032495929
:10220000513E007C1211127C007F49494936003E44
:1022100041414122007F4141221C007F49494941FF
:10222000007F09090901003E4149497A007F0808F9
:10223000087F0000417F4100002040413F01007FB6
:1022400008142241007F40404040007F020C027F82
:10225000007F0408107F003E4141413E007F090994
:102260000906003E4151215E007F091929460046BA
:10227000494949310001017F0101003F4040403F91
:10228000001F2040201F003F4038403F00631408DB
:1022900014630007087008070061514945430000B6
:1022A0007F41410000552A552A55000041417F00D9
:1022B00000040201020400404040404000000102CE
:1022C0000400002054545478007F484444380038B7
:1022D0004444442000384444487F0038545454183F
:1022E00000087E0901020018A4A4A47C007F080451
:1022F00004780000447D4000004080847D00007F21
:10230000102844000000417F4000007C041804783D
:10231000007C0804047800384444443800FC242439
:1023200024180018242418FC007C08040408004821
:102330005454542000043F444020003C4040207C42
:10234000001C2040201C003C4030403C0044281031
:102350002844001CA0A0A07C004464544C441414E5
:10236000141414140000000000000000000000001D
:1023700000000000000000F8000000000000003332
:102380003000000000100C06100C060000000000D9
:102390000000000040C07840C0784000043F0404C2
:1023A0003F040400007088FC08300000001820FF83
:1023B000211E0000F008F000E018000000211C03BE
:1023C0001E211E0000F00888700000001E2123243A
:1023D0001927211010160E00000000000000000058
:1023E00000000000000000E01804020000000007E8
:1023F0001820400000020418E000000000402018EF
:1024000007000000404080F0804040000202010FC1
:1024100001020200000000F0000000000101011FA5
:1024200001010100000000000000000080B0700009
:102430000000000000000000000000000001010199
:102440000101010100000000000000000030300028
:102450000000000000000000806018040060180602
:102460000100000000E010080810E000000F10203C
:1024700020100F00001010F8000000000020203F86
:102480002020000000700808088870000030282410
:1024900022213000003008888848300000182020B1
:1024A00020110E000000C02010F8000000070424D6
:1024B000243F240000F8088888080800001921201B
:1024C00020110E0000E0108888180000000F112075
:1024D00020110E0000380808C83808000000003F2E
:1024E000000000000070880808887000001C22218D
:1024F00021221C0000E010080810E000000031223A
:1025000022110F00000000C0C000000000000030D9
:10251000300000000000008000000000000080602B
:1025200000000000000080402010080000010204AC
:102530000810200040404040404040000404040493
:10254000040404000008102040800000002010084F
:1025500004020100007048080808F0000000003084
:1025600036010000C030C828E810E0000718272412
:1025700023140B000000C038E0000000203C2302C0
:102580000227382008F8888888700000203F202023
:1025900020110E00C0300808080838000718202055
:1025A0002010080008F808080810E000203F20204C
:1025B00020100F0008F88888E8081000203F20202D
:1025C0002320180008F88888E8081000203F200021
:1025D00003000000C0300808083800000718202059
:1025E000221E020008F808000008F808203F210118
:1025F00001213F20000808F8080800000020203FC3
:102600002020000000000808F8080800C080808032
:102610007F00000008F888C028180800203F20012B
:102620002638200008F8080000000000203F202085
:102630002020300008F8F800F8F80800203F003F9C
:10264000003F200008F830C00008F808203F2000B4
:1026500007183F00E01008080810E0000F102020C5
:1026600020100F0008F808080808F000203F21019A
:1026700001010000E01008080810E0000F182424F1
:1026800038504F0008F8888888887000203F200064
:10269000030C30200070880808083800003820211A
:1026A00021221C00180808F8080818000000203F24
:1026B0002000000008F808000008F808001F20208B
:1026C00020201F000878880000C83808000007385C
:1026D0000E010000F80800F80008F800033C0700AD
:1026E000073C0300081868808068180820302C0315
:1026F000032C30200838C800C83808000000203FEC
:102700002000000010080808C838080020382621DA
:1027100020201800000000FE020202000000007FDE
:1027200040404000000C30C00000000000000001EC
:102730000638C00000020202FE00000000404040D7
:102740007F000000000004020202040000000000FC
:102750000000000000000000000000008080808079
:102760008080808000020204000000000000000061
:1027700000000000000080808080000000192422FA
:1027800022223F2008F8008080000000003F112036
:1027900020110E000000008080800000000E11203B
:1027A00020201100000000808088F800000E112019
:1027B00020103F200000808080800000001F222227
:1027C00022221300008080F0888888180020203F93
:1027D000202000000000808080808000006B9494A6
:1027E0009493600008F8008080800000203F210062
:1027F00000203F2000809898000000000020203F2B
:1028000020200000000000809898000000C0808018
:10281000807F000008F8000080808000203F2402B4
:102820002D302000000808F8000000000020203FA4
:10283000202000008080808080808000203F200059
:102840003F20003F8080008080800000203F2100EA
:1028500000203F200000808080800000001F20209A
:1028600020201F00808000808000000080FFA120C9
:1028700020110E000000008080808000000E1120DA
:1028800020A0FF80808080008080800020203F2169
:10289000200001000000808080808000003324241C
:1028A00024241900008080E0808000000000001FC8
:1028B000202000008080000000808000001F202079
:1028C00020103F20808080000080808000010E303A
:1028D0000806010080800080008080800F300C039B
:1028E0000C300F0000808000808080000020312E9E
:1028F0000E312000808080000080808080818E707A
:102900001806010000808080808080000021302C2B
:102910002221300000000000807C02020000000044
:10292000003F404000000000FF00000000000000E9
:10293000FF0000000002027C800000000040403FD9
:102940000000000000060101020204040000000073
:10295000000000007429000800000020A40000000E
:10296000381C0008182A0008A40000203C050000BC
:10297000481C0008000000000000000000000000EB
:102980000000000000000000000000000000000047
:1029900000000000000000009A995940000000006B
:1029A0000000000000000000000000000000000027
:1029B0000000000000000000000000000000000017
:1029C0000000000000000000000000000000000007
:1029D00000000000000000000000000000000000F7
:1029E00000000000000000000000000000000000E7
:1029F00000000000000000000102030401020304C3
:102A000006070809007A030A000000000000000021
:082A1000010203040607080996
:040000050800018965
:00000001FF
