:020000040800F2
:1000000038040020010100088D0D0008890D00084A
:100010008B0D000869020008F111000800000000C3
:10002000000000000000000000000000210F000898
:100030006B02000800000000ED0D0008230F00080F
:100040001B0100081B0100081B0100081B01000820
:100050001B0100081B0100081B0100081B01000810
:100060001B0100081B0100081B0100081B01000800
:100070001B0100081B0100081B0100081B010008F0
:100080001B0100081B0100081B0100081B010008E0
:100090001B0100081B0100081B0100081B010008D0
:1000A0001B0100081B0100081B0100081B010008C0
:1000B0001B0100081B0100081B0100081B010008B0
:1000C0001B0100081B0100081B0100081B010008A0
:1000D0001B0100081B0100081B0100081B01000890
:1000E0006D0200081B0100081B010008DFF80CD09E
:1000F00000F05CF800480047651200083804002052
:100100000648804706480047FEE7FEE7FEE7FEE7B1
:10011000FEE7FEE7FEE7FEE7FEE7FEE7250F000845
:10012000ED00000840EA01039B0703D009E008C97D
:10013000121F08C0042AFAD203E011F8013B00F8AC
:10014000013B521EF9D270472DE9F05F05460020B1
:1001500092469B4688460646814640241BE0284638
:1001600041464746224600F042F853465A46C01AD6
:10017000914110D311461846224600F029F82D1A55
:1001800067EB01084F4622460120002100F020F8CD
:1001900017EB00094E41201EA4F10104DFDC4846A4
:1001A00031462A464346BDE8F09F0000064C074D05
:1001B00006E0E06840F0010394E807009847103437
:1001C000AC42F6D3FFF796FFD4170008F4170008E7
:1001D000202A04DB203A00FA02F100207047914007
:1001E000C2F1200320FA03F3194390407047202AFC
:1001F00004DB203A21FA02F00021704721FA02F3D1
:10020000D040C2F1200291400843194670478268ED
:10021000002922F0010318BF42F0010383607047F8
:1002200042680F4B1A400B681A430B7942EA0322CB
:10023000426082680B4B02EA030CD1E9023242EAC7
:100240000C021A434B7942EA43028260C26A097C7B
:10025000013922F47002C9B242EA0151C162704709
:10026000FFFEF0FFFDF7F1FFFEE7704780B54FF4AA
:10027000006000F019F868B1724801210170072090
:1002800000F038FC044908704FF40060BDE880407D
:1002900000F004B880BD00BF3100002001490860B3
:1002A000704700BF140401401D490A68024018BF8E
:1002B00001224969084018BF01201040704700BF63
:1002C00082791749F2B102680B6893430B604B685F
:1002D00093434B60037943EA010CDCF800301A4386
:1002E000CCF8002002688B6893438B60CB68934303
:1002F000CB60407910280DD188681043886001F1E7
:100300000C0008E00279006811430A6822EA000044
:10031000086070470843016811430160704700BFDF
:100320000004014080B592B00D228DF80420022215
:10033000ADF806208DF8080001A88DF8091000F02E
:100340000FF812B080BDB0B50C46054600F0D2FBE8
:1003500020EA04012846BDE8B04000F079BC000066
:1003600070B5364E0446002000210025B04702201B
:10037000102100F061FC06207F21B04707207F217B
:10038000B04705E020440179052000F061FC01350B
:100390006188E8B28842F5D394F90000B0F1FF3FDC
:1003A00002DDC1B2002029E00820102100F050FC3D
:1003B000234D287800284FF009000CBFE821E021E8
:1003C00000F046FC1F4E002030700020217800F025
:1003D0003FFC3078B0FA80F04009C0074FF00100D0
:1003E000FBD1002010213070082000F031FC28786B
:1003F00000284FF009000CBF2821202100F028FC24
:100400004FF4FA65280415D0062000F073FB013D77
:10041000C006F7D5042000F06DFB0546043405E066
:10042000052000F067FB04F8010B013D002DF7D11A
:10043000002000E0822040B270BD00BF510C0008D7
:10044000320000203000002028200821FFF77BBF69
:100450002820082100F0F0BB70B588B0FFF7F4FF4A
:10046000364D0A20A847FFF7F3FF354C4FF4807153
:10047000204600F087FC0120A84720464FF48071F9
:1004800000F07EFC0520A847562000F0C1F90A20A4
:10049000A8470DF117050DF11F00294600F0E2FAFB
:1004A000064628482A460823314600F0F3FE002E6F
:1004B00041D14FF47A7000F0ABFE0DF1170000F05F
:1004C00085FB0546204800220023294600F0E2FE75
:1004D0008DBB0DF107050DF1060305212A4600F03D
:1004E0002BFB9DF80630064618A02A46314600F040
:1004F000D1FE06BB04F500640DF11F050DF11706D2
:1005000004E020464FF4005100F03CFCFFF79CFF54
:100510000A2000F07DFEFFF79BFF20464FF40051BC
:1005200000F030FC0A2000F073FE2846314600F04F
:1005300099FA0028E5D008B070BD00BF111200087C
:1005400000080140C9170008C2170008526561641D
:10055000426C6F636B0000002DE9F04F8FB04FF4D9
:100560008070544C0DF1380BADF8380041F20300A7
:100570005946ADF83A004E4D05F550484046A04763
:100580004D4A40464FF4807190474FF4006940F265
:10059000034005F554475946ADF83890ADF83A0098
:1005A0003846A04701200B2126464FF0010A00F0F3
:1005B0006FFB07A8CDF81C90ADF820908DF822A015
:1005C0004FF00109FFF77CFE3C48069006A800F0BA
:1005D000DFFB4FF4805041F203045946ADF8380078
:1005E0003846ADF83A40B047B246334E38464FF43D
:1005F0008051B04703205946ADF838003846ADF871
:100600003A40D0473846012100F0BAFB3846022173
:10061000B0474FF460405946ADF8380041F603004A
:10062000ADF83A003846D0474FF08270002709A94C
:1006300009904FF000700A970B9018200C9007203B
:10064000ADF83400284600F050FC2846012100F0A7
:1006500043FC80205946ADF8380040468DF83B7089
:10066000D0474FF4602005F56C4501978DF8087070
:100670008DF8097001A9CDE9030728468DF814907B
:10068000FFF7CEFD28460121FFF7C1FD40464FF49C
:10069000807100F075FB1E2000F0BAFD7F2000F095
:1006A00029FA014606A000F015FE0FB0BDE8F08F54
:1006B00000380040BD0C0008850D0008280F0F0110
:1006C00076657273696F6E3A2025580A0000000043
:1006D000F8B5E34E0446002000210025B047022073
:1006E000102100F0A9FA06207F21B04707207F21C2
:1006F000B04705E020440179052000F0A9FA013552
:100700006188A8B28842F5D308200821B0470920A3
:100710004021B04721780020B047072000F0EAF9D7
:100720004006FAD52078072817D106207F21B04748
:1007300007207F21B04708200421B047092040212D
:10074000B0474FF4FA5505E0072000F0D3F9400612
:1007500003D4013D2804F7D100250820002100F032
:1007600077FA0920002100F073FA0A2000F0C2F99C
:10077000290407D040B110F0040F30D1C00730D1A8
:10078000822040E0E2203EE02049002008702178ED
:10079000072938D1042000F0ADF905460C2000F0FF
:1007A000A9F9E90010F007004FF000061EBFC0B223
:1007B00008390143002D618008BF0125FA2D28BFAB
:1007C0006FF00505EDB205E02718052000F092F95D
:1007D00038710136B0B2A842F6D3002013E0E82009
:1007E00011E0042000F086F90546002605E02718F0
:1007F000052000F07FF938710136B0B2A842F6D377
:10080000E8006080EB2040B201B0F0BD3000002075
:10081000B0B5E54D04460F209821A8471420922139
:10082000A84719202021A8471A200321A8471B20E8
:10083000FF21A8471E200021A847562C3FD0422C5C
:1008400000F08080462C00F0BA80412C40F0FA8005
:1008500003201021A8470C208021A84728208021B0
:10086000A8472920C021A8472A200921A8472B20D2
:100870000521A84734200021A84700200021FFF7C8
:1008800051FD08200021A84709200021A847022087
:10089000B021A8472F202021A84730200021A847B9
:1008A0003320CF21A84735200421A84737205521E0
:1008B000A84738201221A84739200A2138E0032010
:1008C0001021A8470C208021A84728208921A8476B
:1008D00029200421A8472A200921A8472B200A21E2
:1008E000A84734200021A8470A200A21FFF71AFD53
:1008F00008200021A84709200021A8470220B02194
:10090000A8472F200021A84730200021A8473320E6
:100910000F21A84735200221A84737207421A84776
:1009200038201221A84739200721A84736209C21CA
:10093000A84728208121A8470B200021A84728206C
:1009400089217EE003201021A8470C208021A847A0
:1009500028208F21A84729200C21A8472A200121DF
:10096000A8472B200521A84734200021A8470420B0
:100970000421FFF7D7FC08200021A8470920002107
:10098000A8470220B021A8472F200A21A8473020DD
:100990000021A84731200121A84733200521A8477D
:1009A0003420B221A84735203421A84737209F2181
:1009B000A84738201221A84739200E2138E003200B
:1009C0001021A8470C208021A84728208821A8476B
:1009D00029200421A8472A200121A8472B200521EE
:1009E000A84734200021A84708200821FFF79AFCD7
:1009F00008200021A84709200021A8470220B02193
:100A0000A8472F200021A84730200321A8473320E2
:100A10000121A84735200521A84737205C21A84798
:100A200038201221A84739200F21A84736208621D7
:100A3000A84728208721A8470B200021A847282065
:100A40008F21A8476620C021A8476C200321A84712
:100A50006D200121A84747200921A8470020B0BDEB
:100A6000510C00082DE9F04192B0724E0C468046C0
:100A70002C207B21B0472D207B21B0472E20082140
:100A8000B04731208821B0473220A921B04710203B
:100A900000210027B04711208021B04715200321F5
:100AA0000325B04716202221B047072001AE8DF85C
:100AB00004004FF49370ADF80650ADF808003046CE
:100AC0008DF80A70FFF704FE78B9BDF806005028CB
:100AD0000AD19DF80910B01D88F80010016840681F
:100AE00060600020216000E0842040B212B0BDE8C8
:100AF000F08100BFB0B5654D04464FF480512846E3
:100B000000F03EF9012040EA4400C0B200F04EF887
:100B1000002000F04BF8044628464FF4805100F0C6
:100B200031F9142003E000BF013800BF00BF0028E6
:100B3000F9D12046B0BD00BFF0B591B03D4F0E4693
:100B4000102024211D461446B8471120EB21B84738
:100B500015200021B84716200021B84707208DF83E
:100B600000000320ADF8020012208DF804002020C0
:100B70008DF805008DF806606E463046FFF7A8FD3B
:100B800070B9BDF8020050B1FF22711D02EBD00018
:100B90002870C2B22046FFF7C5FA002000E084208A
:100BA00040B211B0F0BD00BF510C000806490A88E0
:100BB00012F0020FFAD08880088810F0010FFBD0E5
:100BC0008888C0B2704700BF08380040B0B592B006
:100BD000184D044610202421A8471120EB21A847D6
:100BE00015200021A84716200021A84707208DF8CE
:100BF00004000A20ADF8060042F22250ADF80800C9
:100C000020686168CDF80E10CDF80A0001A8FFF742
:100C10005FFD58B99DF80800002818BF6FF07B00F1
:100C2000BDF80610002908BF6FF07B0040B212B07B
:100C3000B0BD00BF510C0008B0B50C460546FFF72B
:100C400059FF40EA04012846BDE8B040AFF30080F8
:100C500070B50E4C0D4606464FF48051204600F00C
:100C60008FF87000C0B2FFF7A1FF2846FFF79EFF84
:100C700020464FF4805100F085F8142003E000BFB7
:100C8000013800BF00BF0028F9D170BD000C014041
:100C900010B5094C0C220F2302EA810201F0FC017D
:100CA00003FA02FC90400B5923EA0C030B510A593A
:100CB0001043085110BD00BF080001402DE9F04766
:100CC00091F803C00CF00F0E1CF0100F1CBF8A78B7
:100CD0004EEA020E098811F0FF0F24D003680022AB
:100CE0004FF001094FF00F08E246002618E009FA1C
:100CF00006F50D4212D008FA02F70EFA02F4BB43D1
:100D000023435FFA8AF4482C05D0282C04BF4561A0
:100D10004FF0280A02E04FF0480A0561043201361C
:100D2000082EE4D10360B1F5807F38BFBDE8F087BD
:100D3000436800224FF001094FF00F0800261AE027
:100D400006F1080509FA05F70F4212D008FA02F475
:100D50000EFA02F5A3432B435FFA8CF5482D05D01C
:100D6000282D04BF47614FF0280C02E04FF0480CDB
:100D7000076104320136202AE2D14360BDE8F087E2
:100D80004161704701617047FEE7FEE77047000070
:100D9000C2781449D2B110B5134A0723126890F8EB
:100DA00001E0847890F800C023EA12220F23D34098
:100DB000C2F1040223400EFA02F21A4301EB0C03C3
:100DC000120183F80023BDE8104000E08031007874
:100DD000012300F01F02C0F3421003FA02F241F8AF
:100DE0002020704700E100E00CED00E070470000BB
:100DF000044A002911680CBF21EA00000843106072
:100E0000704700BF1C100240044A002911680CBF43
:100E100021EA000008431060704700BF181002402C
:100E200010B52C490A681B4C02F00C02082A224615
:100E300011D10A68C2F3834202F1020C164A0B6810
:100E40000CFB02F213F4803F05D00B6813F4003F53
:100E500008BF0CFB04F20260104C0B68C3F30313D1
:100E6000E35CDA4042600B68C3F30223E35C22FADE
:100E700003F383600B68C3F3C223E35CDA40084BDF
:100E8000C2600968C1F38131595CB2FBF1F10161C3
:100E900010BD00BF00127A0000093D00AC17000829
:100EA000A81700080B490A6822F0F00210430860F6
:100EB000704700BF07490A6822F4E06210430860E7
:100EC000704700BF03490A6822F4605242EAC0003A
:100ED00008607047041002400288002922F0400395
:100EE00018BF42F040030380704702880B8802F469
:100EF00041521A434B881A438B881A43CB881A43B2
:100F00000B891A434B891A438B891A43CB891A439D
:100F10000280828B22F400628283098A01827047F8
:100F20007047704782B03748016841F001010160A5
:100F30004168354A114041600168344A11400160FE
:100F4000016821F480210160416821F4FE014160C3
:100F50004FF41F018160002101910091016841F46B
:100F600080310160016801F4003100910199013183
:100F70000191009919B90199B1F5A06FF2D10168F9
:100F800011F4003F0CBF00210121009100990129BB
:100F900032D14FF48051425842F010024250425830
:100FA00022F003024250425842F00202425041688D
:100FB000416041684160416841F48061416041683D
:100FC00021F47C114160416841F4E81141600168FD
:100FD00041F080710160016811F0007FFBD0416831
:100FE00021F003014160416841F002014160416824
:100FF00001F00C010829FAD105484FF000610160A9
:1010000002B07047001002400000FFF8FFFFF6FE3C
:1010100008ED00E02DE9F04786B000200026FFF73C
:1010200041FF4FF480604FF48069FFF743FF0020D9
:10103000FFF748FF44F21D200121FFF7E5FE4FF4C2
:1010400080400121FFF7D4FE18204FF00308DFF89D
:10105000C8A005AC8DF817004FF400702146ADF81C
:1010600014008DF816802B4D2846D04704202146C9
:101070008DF817002846ADF81490D0474FF4E130B2
:1010800001A9CDE90106ADF810604FF4402005F547
:1010900040560390304600F055F83046012100F0EC
:1010A00042F83046402100F03BF8102005F58066FC
:1010B00021468DF817004FF48760ADF814003046D4
:1010C0008DF81680D047154F30464FF48061B847F1
:1010D00030464FF48061FFF755FE30461021B84787
:1010E00030460821B8474FF4005005F50065214609
:1010F000ADF8140041F20300ADF816002846D047C1
:1011000028464FF40051B847482000F073F806B065
:10111000BDE8F08700080140BD0C0008810D000803
:10112000C943018070478289002922F4005318BF07
:1011300042F40053838170470088084018BF0120A3
:101140007047000070B586B004460D4601AE208A97
:10115000E98820F4405008434EF6F3112082A0891C
:101160000840A98808432989084369890843A08160
:10117000A08AA98920F440700843A0823046FFF776
:101180004FFE374906F1080002226FF063038C42DC
:101190004FF0190108BF06F10C000426006848430F
:1011A000B4F90C100029B8BF012229689140B0FBA6
:1011B000F1F06421B0FBF1F202FB0300B4F90C3052
:1011C000002BB8BF0326002B00FA06F000F1320016
:1011D000B0FBF1F04FF00F01B8BF0721084040EA23
:1011E0000210208106B070BD6FF35F2181807047CF
:1011F000FEE700001149C0080A6822F004020A60F4
:101200000D494FF47A72087050434880704700BF10
:1012100009494988414309484160016841F0010199
:101220000160016811F4803FFBD0016821F00101E9
:1012300001600021816070471000002010E000E094
:10124000B0B5074D0446E1B22846FFF7CDFF28466A
:101250004021FFF771FF0028F9D02046B0BD00BF44
:101260000038014080B5FFF7D5FE1420FFF7D0FF0E
:10127000FFF772F904A000F085FAFFF7EDF8C82037
:10128000FFF7C6FFF9E700BF72657365742121217E
:101290002100000070B50E46154601460AA01C4606
:1012A000324600F017F84EB9094E05E015F8011B5B
:1012B000304600F00FF8013C002CF7D10A20BDE8C1
:1012C000704000F059BA00BF25733A2025645F00D2
:1012D000BC1700080FB4054B10B503A9044A0298C7
:1012E00000F018F810BC5DF814FB00004112000873
:1012F0000000002002E008C8121F08C1002AFAD12D
:1013000070477047002001E001C1121F002AFBD185
:10131000704700002DE9FF4F8DB00F4605460026AF
:1013200006E025280BD0DDE90F1290476D1C761CD6
:1013300028780028F5D111B03046BDE8F08F0024A0
:10134000A246A1460122EC4900E0044315F8013F02
:10135000203B02FA03F00842F7D128782A2810D05F
:101360006FF02F022878A0F13001092914D80AEB78
:101370008A0102EB410144F0020400EB010A6D1CFA
:10138000F0E701CF5FEA000A03D544F40054CAF144
:10139000000A44F002046D1C28782E2817D115F895
:1013A000010F44F004042A280ED06FF02F02287891
:1013B000A0F1300109290AD809EB890102EB4101AA
:1013C00000EB01096D1CF2E757F8049B6D1C2878AF
:1013D0006C280FD006DC4C2817D068280DD06A285E
:1013E00014D104E0742810D07A280FD10DE044F411
:1013F00000140AE044F4801401E044F440146978D5
:10140000814202D104F580146D1C6D1C2A786E2A6D
:101410001FD00CDC632A31D004DC002A8BD0582A80
:1014200011D1A3E0642A68D0692A0CD165E0732A3F
:101430002ED004DC6F2A73D0702A04D19BE0752A69
:101440006FD0782A6ED01046DDE90F129047761CD7
:1014500050E1C4F30250022806D0032809D0042822
:1014600001CF09D0066045E101CFF117C0E9006165
:1014700040E101CF06803DE106703BE117F8040B27
:101480008DF8000000208DF80100EB46012003E0FC
:1014900057F804BB4FF0FF3061074FF0000102D452
:1014A0000DE008F10101884649450FDA8045F8DB77
:1014B0001BF808100029F4D108E008F10101884662
:1014C0008142FADB1BF808100029F6D1DDE90F2371
:1014D000AAEB08008146214600F036F9304400EBC3
:1014E000080604E0DDE90F121BF8010B9047B8F184
:1014F0000108F7D221464846F7E00A21C4F3025317
:101500004FF0000B0891022B04D001CFC117032B21
:1015100009D00AE0FF1D27F00707F7E8020108E0FD
:1015200032E01FE020E000B2C117042B01D140B22D
:10153000C117031E71F1000307DA4FF0000CD0EB66
:101540000C006CEB01012D2302E0230504D52B23B5
:101550008DF82430012303E0E30701D02023F7E7CF
:10156000984658E00A2110E010210EE010204FF0BC
:10157000000B08900CE010214FF0000B44F0040425
:101580004FF00809089103E008214FF0000B089183
:10159000C4F30253022B04D001CF0021032B06D049
:1015A00006E0FF1D27F00707F7E8020103E080B21D
:1015B000042B00D1C0B24FF0000823072BD5702AAE
:1015C00007D0DDF820C08CF0100C5CEA0B0C05D0C5
:1015D0000EE040238DF82430012308E050EA010397
:1015E00006D030238DF824308DF82520022398462C
:1015F000DDF820C08CF0080C5CEA0B0C0BD150EA33
:10160000010301D1630706D530238DF824304FF054
:101610000108A9F10109582A04D038A20B9208AA9E
:101620000A920BE03AA2F9E75B46089AFEF78CFDB6
:101630000B9B9B5C0A9A521E0A92137050EA01029D
:10164000F2D10A98ADEB000000F1200B600702D543
:1016500024F4803401E04FF00109D94502DDA9EB03
:101660000B0000E0002000EB0B0141440890AAEBC6
:10167000010AE00306D4DDE90F232146504600F0BD
:1016800063F806444FF0000908E009A911F80900C1
:10169000DDE90F12904709F10109761CC145F4DB21
:1016A000E0030CD5DDE90F232146504600F04CF84D
:1016B000064404E0DDE90F1230209047761C0899BB
:1016C000481E08900029F5DC08E00A980A9900787D
:1016D000491C0A91DDE90F129047761CBBF100010D
:1016E000ABF1010BF1DC21465046DDE90F2300F0A0
:1016F00019F806446D1C1BE609280100303132330D
:10170000343536373839616263646566000000003D
:101710003031323334353637383941424344454627
:10172000000000002DE9F041044600251E46174642
:10173000880404D405E039462020B0476D1C641E9F
:10174000F9D52846BDE8F0812DE9F0410446002591
:101750001E469046C80301D5302700E020278804A4
:1017600004D505E041463846B0476D1C641EF9D5E6
:101770002846BDE8F08100000149FFF761BD000087
:101780000000002010B5044601E0FFF759FD14F8F1
:10179000010B04490028F8D1BDE810400A20FFF7EA
:1017A0004FBD0000000000200204060800000000F9
:1017B0000102030401020304060708092025303250
:1017C000580053656C65637400496E76656E746F7E
:1017D00072790000001800080000002030000000AE
:1017E000F41200083018000830000020080400003F
:1017F00004130008000000000000000000000000CA
:1018000000000000000000000000000000000000D8
:101810004800FAFF00000000000000000000000087
:1018200000000000000000000000000000000000B8
:04000005080000ED02
:00000001FF
